{
  "_format": "hh-sol-artifact-1",
  "contractName": "BookOfLore",
  "sourceName": "contracts/BookOfLore.sol",
  "abi": [
    {
      "inputs": [
        {
          "internalType": "address",
          "name": "_wizardsContractAddress",
          "type": "address"
        }
      ],
      "stateMutability": "nonpayable",
      "type": "constructor"
    },
    {
      "anonymous": false,
      "inputs": [
        {
          "indexed": false,
          "internalType": "uint256",
          "name": "wizardId",
          "type": "uint256"
        },
        {
          "indexed": false,
          "internalType": "uint256",
          "name": "loreIdx",
          "type": "uint256"
        }
      ],
      "name": "LoreAdded",
      "type": "event"
    },
    {
      "anonymous": false,
      "inputs": [
        {
          "indexed": false,
          "internalType": "uint256",
          "name": "wizardId",
          "type": "uint256"
        },
        {
          "indexed": false,
          "internalType": "uint256",
          "name": "loreIdx",
          "type": "uint256"
        }
      ],
      "name": "LoreStruck",
      "type": "event"
    },
    {
      "anonymous": false,
      "inputs": [
        {
          "indexed": false,
          "internalType": "uint256",
          "name": "wizardId",
          "type": "uint256"
        },
        {
          "indexed": false,
          "internalType": "uint256",
          "name": "loreIdx",
          "type": "uint256"
        }
      ],
      "name": "LoreUpdated",
      "type": "event"
    },
    {
      "anonymous": false,
      "inputs": [
        {
          "indexed": false,
          "internalType": "uint256",
          "name": "loreIdx",
          "type": "uint256"
        }
      ],
      "name": "NarrativeAdded",
      "type": "event"
    },
    {
      "anonymous": false,
      "inputs": [
        {
          "indexed": false,
          "internalType": "uint256",
          "name": "loreIdx",
          "type": "uint256"
        }
      ],
      "name": "NarrativeUpdated",
      "type": "event"
    },
    {
      "anonymous": false,
      "inputs": [
        {
          "indexed": true,
          "internalType": "address",
          "name": "previousOwner",
          "type": "address"
        },
        {
          "indexed": true,
          "internalType": "address",
          "name": "newOwner",
          "type": "address"
        }
      ],
      "name": "OwnershipTransferred",
      "type": "event"
    },
    {
      "inputs": [
        {
          "internalType": "uint256",
          "name": "wizardId",
          "type": "uint256"
        },
        {
          "internalType": "address",
          "name": "assetAddress",
          "type": "address"
        },
        {
          "internalType": "uint256",
          "name": "tokenId",
          "type": "uint256"
        },
        {
          "internalType": "uint256",
          "name": "parentLoreId",
          "type": "uint256"
        },
        {
          "internalType": "bool",
          "name": "nsfw",
          "type": "bool"
        },
        {
          "internalType": "string",
          "name": "loreMetadataURI",
          "type": "string"
        }
      ],
      "name": "addLore",
      "outputs": [],
      "stateMutability": "nonpayable",
      "type": "function"
    },
    {
      "inputs": [
        {
          "internalType": "address",
          "name": "assetAddress",
          "type": "address"
        },
        {
          "internalType": "uint256",
          "name": "tokenId",
          "type": "uint256"
        },
        {
          "internalType": "uint256",
          "name": "parentLoreId",
          "type": "uint256"
        },
        {
          "internalType": "bool",
          "name": "nsfw",
          "type": "bool"
        },
        {
          "internalType": "string",
          "name": "loreMetadataURI",
          "type": "string"
        }
      ],
      "name": "addNarrative",
      "outputs": [],
      "stateMutability": "nonpayable",
      "type": "function"
    },
    {
      "inputs": [
        {
          "internalType": "uint256",
          "name": "wizardId",
          "type": "uint256"
        },
        {
          "internalType": "uint256",
          "name": "startIdx",
          "type": "uint256"
        },
        {
          "internalType": "uint256",
          "name": "endIdx",
          "type": "uint256"
        }
      ],
      "name": "loreAt",
      "outputs": [
        {
          "components": [
            {
              "internalType": "address",
              "name": "creator",
              "type": "address"
            },
            {
              "internalType": "address",
              "name": "assetAddress",
              "type": "address"
            },
            {
              "internalType": "uint256",
              "name": "tokenId",
              "type": "uint256"
            },
            {
              "internalType": "uint256",
              "name": "parentLoreId",
              "type": "uint256"
            },
            {
              "internalType": "bool",
              "name": "nsfw",
              "type": "bool"
            },
            {
              "internalType": "bool",
              "name": "struck",
              "type": "bool"
            },
            {
              "internalType": "string",
              "name": "loreMetadataURI",
              "type": "string"
            }
          ],
          "internalType": "struct BookOfLore.Lore[]",
          "name": "",
          "type": "tuple[]"
        }
      ],
      "stateMutability": "view",
      "type": "function"
    },
    {
      "inputs": [
        {
          "internalType": "uint256",
          "name": "wizardId",
          "type": "uint256"
        }
      ],
      "name": "loreFor",
      "outputs": [
        {
          "components": [
            {
              "internalType": "address",
              "name": "creator",
              "type": "address"
            },
            {
              "internalType": "address",
              "name": "assetAddress",
              "type": "address"
            },
            {
              "internalType": "uint256",
              "name": "tokenId",
              "type": "uint256"
            },
            {
              "internalType": "uint256",
              "name": "parentLoreId",
              "type": "uint256"
            },
            {
              "internalType": "bool",
              "name": "nsfw",
              "type": "bool"
            },
            {
              "internalType": "bool",
              "name": "struck",
              "type": "bool"
            },
            {
              "internalType": "string",
              "name": "loreMetadataURI",
              "type": "string"
            }
          ],
          "internalType": "struct BookOfLore.Lore[]",
          "name": "",
          "type": "tuple[]"
        }
      ],
      "stateMutability": "view",
      "type": "function"
    },
    {
      "inputs": [
        {
          "internalType": "uint256",
          "name": "",
          "type": "uint256"
        }
      ],
      "name": "narrative",
      "outputs": [
        {
          "internalType": "address",
          "name": "creator",
          "type": "address"
        },
        {
          "internalType": "address",
          "name": "assetAddress",
          "type": "address"
        },
        {
          "internalType": "uint256",
          "name": "tokenId",
          "type": "uint256"
        },
        {
          "internalType": "uint256",
          "name": "parentLoreId",
          "type": "uint256"
        },
        {
          "internalType": "bool",
          "name": "nsfw",
          "type": "bool"
        },
        {
          "internalType": "bool",
          "name": "struck",
          "type": "bool"
        },
        {
          "internalType": "string",
          "name": "loreMetadataURI",
          "type": "string"
        }
      ],
      "stateMutability": "view",
      "type": "function"
    },
    {
      "inputs": [
        {
          "internalType": "uint256",
          "name": "startIdx",
          "type": "uint256"
        },
        {
          "internalType": "uint256",
          "name": "endIdx",
          "type": "uint256"
        }
      ],
      "name": "narrativeAt",
      "outputs": [
        {
          "components": [
            {
              "internalType": "address",
              "name": "creator",
              "type": "address"
            },
            {
              "internalType": "address",
              "name": "assetAddress",
              "type": "address"
            },
            {
              "internalType": "uint256",
              "name": "tokenId",
              "type": "uint256"
            },
            {
              "internalType": "uint256",
              "name": "parentLoreId",
              "type": "uint256"
            },
            {
              "internalType": "bool",
              "name": "nsfw",
              "type": "bool"
            },
            {
              "internalType": "bool",
              "name": "struck",
              "type": "bool"
            },
            {
              "internalType": "string",
              "name": "loreMetadataURI",
              "type": "string"
            }
          ],
          "internalType": "struct BookOfLore.Lore[]",
          "name": "",
          "type": "tuple[]"
        }
      ],
      "stateMutability": "view",
      "type": "function"
    },
    {
      "inputs": [
        {
          "internalType": "uint256",
          "name": "wizardId",
          "type": "uint256"
        }
      ],
      "name": "numLore",
      "outputs": [
        {
          "internalType": "uint256",
          "name": "",
          "type": "uint256"
        }
      ],
      "stateMutability": "view",
      "type": "function"
    },
    {
      "inputs": [],
      "name": "numNarrative",
      "outputs": [
        {
          "internalType": "uint256",
          "name": "",
          "type": "uint256"
        }
      ],
      "stateMutability": "view",
      "type": "function"
    },
    {
      "inputs": [],
      "name": "owner",
      "outputs": [
        {
          "internalType": "address",
          "name": "",
          "type": "address"
        }
      ],
      "stateMutability": "view",
      "type": "function"
    },
    {
      "inputs": [],
      "name": "renounceOwnership",
      "outputs": [],
      "stateMutability": "nonpayable",
      "type": "function"
    },
    {
      "inputs": [
        {
          "internalType": "uint256",
          "name": "wizardId",
          "type": "uint256"
        },
        {
          "internalType": "uint256",
          "name": "loreIdx",
          "type": "uint256"
        },
        {
          "internalType": "bool",
          "name": "newStruck",
          "type": "bool"
        }
      ],
      "name": "strikeLore",
      "outputs": [],
      "stateMutability": "nonpayable",
      "type": "function"
    },
    {
      "inputs": [
        {
          "internalType": "address",
          "name": "newOwner",
          "type": "address"
        }
      ],
      "name": "transferOwnership",
      "outputs": [],
      "stateMutability": "nonpayable",
      "type": "function"
    },
    {
      "inputs": [
        {
          "internalType": "uint256",
          "name": "wizardId",
          "type": "uint256"
        },
        {
          "internalType": "uint256",
          "name": "loreIdx",
          "type": "uint256"
        },
        {
          "internalType": "string",
          "name": "newLoreMetadataURI",
          "type": "string"
        }
      ],
      "name": "updateLoreMetadataURI",
      "outputs": [],
      "stateMutability": "nonpayable",
      "type": "function"
    },
    {
      "inputs": [
        {
          "internalType": "uint256",
          "name": "wizardId",
          "type": "uint256"
        },
        {
          "internalType": "uint256",
          "name": "loreIdx",
          "type": "uint256"
        },
        {
          "internalType": "bool",
          "name": "newNSFW",
          "type": "bool"
        }
      ],
      "name": "updateLoreNSFW",
      "outputs": [],
      "stateMutability": "nonpayable",
      "type": "function"
    },
    {
      "inputs": [
        {
          "internalType": "uint256",
          "name": "loreIdx",
          "type": "uint256"
        },
        {
          "internalType": "string",
          "name": "newLoreMetadataURI",
          "type": "string"
        }
      ],
      "name": "updateNarrativeMetadataURI",
      "outputs": [],
      "stateMutability": "nonpayable",
      "type": "function"
    },
    {
      "inputs": [
        {
          "internalType": "uint256",
          "name": "",
          "type": "uint256"
        },
        {
          "internalType": "uint256",
          "name": "",
          "type": "uint256"
        }
      ],
      "name": "wizardLore",
      "outputs": [
        {
          "internalType": "address",
          "name": "creator",
          "type": "address"
        },
        {
          "internalType": "address",
          "name": "assetAddress",
          "type": "address"
        },
        {
          "internalType": "uint256",
          "name": "tokenId",
          "type": "uint256"
        },
        {
          "internalType": "uint256",
          "name": "parentLoreId",
          "type": "uint256"
        },
        {
          "internalType": "bool",
          "name": "nsfw",
          "type": "bool"
        },
        {
          "internalType": "bool",
          "name": "struck",
          "type": "bool"
        },
        {
          "internalType": "string",
          "name": "loreMetadataURI",
          "type": "string"
        }
      ],
      "stateMutability": "view",
      "type": "function"
    },
    {
      "inputs": [],
      "name": "wizardsContractAddress",
      "outputs": [
        {
          "internalType": "address",
          "name": "",
          "type": "address"
        }
      ],
      "stateMutability": "view",
      "type": "function"
    }
  ],
  "bytecode": "0x60806040523480156200001157600080fd5b5060405162001ca538038062001ca58339810160408190526200003491620000c2565b62000048620000426200006e565b62000072565b600180546001600160a01b0319166001600160a01b0392909216919091179055620000f2565b3390565b600080546001600160a01b038381166001600160a01b0319831681178455604051919092169283917f8be0079c531659141344cd1fd0a4f28419497f9722a3daafe3b4186f6b6457e09190a35050565b600060208284031215620000d4578081fd5b81516001600160a01b0381168114620000eb578182fd5b9392505050565b611ba380620001026000396000f3fe608060405234801561001057600080fd5b506004361061010b5760003560e01c80636b1dce27116100a2578063b2566d8911610071578063b2566d8914610218578063b45edb7b1461022b578063ba0e0e871461023e578063f143914714610251578063f2fde38b146102595761010b565b80636b1dce27146101e2578063715018a6146101f55780637c56e08c146101fd5780638da5cb5b146102105761010b565b80632d7483c2116100de5780632d7483c214610187578063325253f5146101a75780634067ccfc146101ba57806342c470e4146101cd5761010b565b806301b0a13e146101105780631623de071461013f57806320baff091461015f578063256babc114610174575b600080fd5b61012361011e3660046115c8565b61026c565b60405161013697969594939291906117d2565b60405180910390f35b61015261014d366004611742565b610358565b6040516101369190611829565b61017261016d3660046116f4565b61057b565b005b6101726101823660046116c0565b61074e565b61019a6101953660046115c8565b610824565b6040516101369190611a90565b6101726101b5366004611556565b610839565b6101726101c83660046115e0565b6109c2565b6101d5610be9565b60405161013691906117be565b6101526101f03660046115c8565b610bf8565b610172610d53565b61015261020b36600461169f565b610d9e565b6101d5610fb4565b61012361022636600461169f565b610fc3565b6101726102393660046116c0565b611039565b61017261024c36600461165a565b61120e565b61019a6112cf565b610172610267366004611517565b6112d5565b6003818154811061027c57600080fd5b60009182526020909120600690910201805460018201546002830154600384015460048501546005860180546001600160a01b03968716985095909416959294919360ff8083169461010090930416926102d590611ad6565b80601f016020809104026020016040519081016040528092919081815260200182805461030190611ad6565b801561034e5780601f106103235761010080835404028352916020019161034e565b820191906000526020600020905b81548152906001019060200180831161033157829003601f168201915b5050505050905087565b606060006103668484611abf565b610371906001611aa7565b67ffffffffffffffff81111561039757634e487b7160e01b600052604160045260246000fd5b6040519080825280602002602001820160405280156103d057816020015b6103bd61139a565b8152602001906001900390816103b55790505b50905060006103df8585611abf565b6103ea906001611aa7565b905060005b8181101561057057600087815260026020526040902061040f8288611aa7565b8154811061042d57634e487b7160e01b600052603260045260246000fd5b60009182526020918290206040805160e081018252600690930290910180546001600160a01b0390811684526001820154169383019390935260028301549082015260038201546060820152600482015460ff8082161515608084015261010090910416151560a082015260058201805491929160c0840191906104b090611ad6565b80601f01602080910402602001604051908101604052809291908181526020018280546104dc90611ad6565b80156105295780601f106104fe57610100808354040283529160200191610529565b820191906000526020600020905b81548152906001019060200180831161050c57829003601f168201915b50505050508152505083828151811061055257634e487b7160e01b600052603260045260246000fd5b6020026020010181905250808061056890611b11565b9150506103ef565b509095945050505050565b610583611346565b6001600160a01b03166002600085815260200190815260200160002083815481106105be57634e487b7160e01b600052603260045260246000fd5b60009182526020909120600690910201546001600160a01b0316146105fe5760405162461bcd60e51b81526004016105f590611973565b60405180910390fd5b6001546040516331a9108f60e11b81526000916001600160a01b031690636352211e9061062f908790600401611a90565b60206040518083038186803b15801561064757600080fd5b505afa15801561065b573d6000803e3d6000fd5b505050506040513d601f19601f8201168201806040525081019061067f919061153a565b9050610689611346565b6001600160a01b0316816001600160a01b0316146106b95760405162461bcd60e51b81526004016105f59061192e565b60008481526002602052604090208054839190859081106106ea57634e487b7160e01b600052603260045260246000fd5b9060005260206000209060060201600501908051906020019061070e9291906113ed565b507f6c051df16a3a043c5ca34c310429a51230d86070822fd90291c92712dd8275028484604051610740929190611a99565b60405180910390a150505050565b610756611346565b6001600160a01b0316610767610fb4565b6001600160a01b03161461078d5760405162461bcd60e51b81526004016105f5906119b8565b60008381526002602052604090208054829190849081106107be57634e487b7160e01b600052603260045260246000fd5b906000526020600020906006020160040160016101000a81548160ff0219169083151502179055507f91aa51c4d7593648b5c2fc2914a8bbbd8a185b75b8afc2d3b66d2e7b09b4326d8383604051610817929190611a99565b60405180910390a1505050565b6000818152600260205260409020545b919050565b610841611346565b6001600160a01b0316610852610fb4565b6001600160a01b0316146108785760405162461bcd60e51b81526004016105f5906119b8565b60036040518060e0016040528061088d611346565b6001600160a01b03908116825288811660208084019190915260408084018a905260608085018a9052881515608080870191909152600060a080880182905260c09788018b9052895460018181018c559a835291869020895160069093020180549288166001600160a01b0319938416178155898701519a810180549b9098169a9092169990991790955591860151600285015585015160038401558401516004830180549686015115156101000261ff001992151560ff199098169790971791909116959095179094559082015180519293919261097292600585019201906113ed565b50506003547fd8dde1fe359df01b99b74a48e66964ba5bac4e57eeea6dd9c0c5ecb56d97945f91506109a690600190611abf565b6040516109b39190611a90565b60405180910390a15050505050565b6001546040516331a9108f60e11b81526000916001600160a01b031690636352211e906109f3908a90600401611a90565b60206040518083038186803b158015610a0b57600080fd5b505afa158015610a1f573d6000803e3d6000fd5b505050506040513d601f19601f82011682018060405250810190610a43919061153a565b9050610a4d611346565b6001600160a01b0316816001600160a01b031614610a7d5760405162461bcd60e51b81526004016105f59061192e565b600260008881526020019081526020016000206040518060e00160405280610aa3611346565b6001600160a01b03908116825289811660208084019190915260408084018b905260608085018b9052891515608080870191909152600060a080880182905260c09788018c9052895460018181018c559a835291869020895160069093020180549288166001600160a01b0319938416178155898701519a810180549b9098169a9092169990991790955591860151600285015585015160038401558401516004830180549686015115156101000261ff001992151560ff1990981697909717919091169590951790945590820151805192939192610b8892600585019201906113ed565b5050506000878152600260205260409020547f9801e3ae592f41bd680d69e36b9ac6b654a56f08e835076ea4ba891820b50122908890610bca90600190611abf565b604051610bd8929190611a99565b60405180910390a150505050505050565b6001546001600160a01b031681565b606060026000838152602001908152602001600020805480602002602001604051908101604052809291908181526020016000905b82821015610d485760008481526020908190206040805160e0810182526006860290920180546001600160a01b0390811684526001820154169383019390935260028301549082015260038201546060820152600482015460ff8082161515608084015261010090910416151560a082015260058201805491929160c084019190610cb790611ad6565b80601f0160208091040260200160405190810160405280929190818152602001828054610ce390611ad6565b8015610d305780601f10610d0557610100808354040283529160200191610d30565b820191906000526020600020905b815481529060010190602001808311610d1357829003601f168201915b50505050508152505081526020019060010190610c2d565b505050509050919050565b610d5b611346565b6001600160a01b0316610d6c610fb4565b6001600160a01b031614610d925760405162461bcd60e51b81526004016105f5906119fe565b610d9c600061134a565b565b60606000610dac8484611abf565b610db7906001611aa7565b67ffffffffffffffff811115610ddd57634e487b7160e01b600052604160045260246000fd5b604051908082528060200260200182016040528015610e1657816020015b610e0361139a565b815260200190600190039081610dfb5790505b5090506000610e258585611abf565b610e30906001611aa7565b905060005b81811015610faa576003610e498288611aa7565b81548110610e6757634e487b7160e01b600052603260045260246000fd5b60009182526020918290206040805160e081018252600690930290910180546001600160a01b0390811684526001820154169383019390935260028301549082015260038201546060820152600482015460ff8082161515608084015261010090910416151560a082015260058201805491929160c084019190610eea90611ad6565b80601f0160208091040260200160405190810160405280929190818152602001828054610f1690611ad6565b8015610f635780601f10610f3857610100808354040283529160200191610f63565b820191906000526020600020905b815481529060010190602001808311610f4657829003601f168201915b505050505081525050838281518110610f8c57634e487b7160e01b600052603260045260246000fd5b60200260200101819052508080610fa290611b11565b915050610e35565b5090949350505050565b6000546001600160a01b031690565b60026020528160005260406000208181548110610fdf57600080fd5b60009182526020909120600690910201805460018201546002830154600384015460048501546005860180546001600160a01b0396871699509490951696509194909360ff8084169461010090940416926102d590611ad6565b6001546040516331a9108f60e11b81526000916001600160a01b031690636352211e9061106a908790600401611a90565b60206040518083038186803b15801561108257600080fd5b505afa158015611096573d6000803e3d6000fd5b505050506040513d601f19601f820116820180604052508101906110ba919061153a565b90506110c4611346565b6001600160a01b03166002600086815260200190815260200160002084815481106110ff57634e487b7160e01b600052603260045260246000fd5b60009182526020909120600690910201546001600160a01b031614801561113e5750611129611346565b6001600160a01b0316816001600160a01b0316145b80611168575061114c611346565b6001600160a01b031661115d610fb4565b6001600160a01b0316145b6111845760405162461bcd60e51b81526004016105f590611a33565b60008481526002602052604090208054839190859081106111b557634e487b7160e01b600052603260045260246000fd5b906000526020600020906006020160040160006101000a81548160ff0219169083151502179055507f6c051df16a3a043c5ca34c310429a51230d86070822fd90291c92712dd8275028484604051610740929190611a99565b611216611346565b6001600160a01b0316611227610fb4565b6001600160a01b03161461124d5760405162461bcd60e51b81526004016105f5906119b8565b806003838154811061126f57634e487b7160e01b600052603260045260246000fd5b906000526020600020906006020160050190805190602001906112939291906113ed565b507faab576a392d1edb2248a5f65283b7ffd63b7a2bf7431e24682075dcb63335577826040516112c39190611a90565b60405180910390a15050565b60035490565b6112dd611346565b6001600160a01b03166112ee610fb4565b6001600160a01b0316146113145760405162461bcd60e51b81526004016105f5906119fe565b6001600160a01b03811661133a5760405162461bcd60e51b81526004016105f5906118e8565b6113438161134a565b50565b3390565b600080546001600160a01b038381166001600160a01b0319831681178455604051919092169283917f8be0079c531659141344cd1fd0a4f28419497f9722a3daafe3b4186f6b6457e09190a35050565b6040518060e0016040528060006001600160a01b0316815260200160006001600160a01b031681526020016000815260200160008152602001600015158152602001600015158152602001606081525090565b8280546113f990611ad6565b90600052602060002090601f01602090048101928261141b5760008555611461565b82601f1061143457805160ff1916838001178555611461565b82800160010185558215611461579182015b82811115611461578251825591602001919060010190611446565b5061146d929150611471565b5090565b5b8082111561146d5760008155600101611472565b8035801515811461083457600080fd5b600082601f8301126114a6578081fd5b813567ffffffffffffffff808211156114c1576114c1611b42565b604051601f8301601f1916810160200182811182821017156114e5576114e5611b42565b6040528281528483016020018610156114fc578384fd5b82602086016020830137918201602001929092529392505050565b600060208284031215611528578081fd5b813561153381611b58565b9392505050565b60006020828403121561154b578081fd5b815161153381611b58565b600080600080600060a0868803121561156d578081fd5b853561157881611b58565b9450602086013593506040860135925061159460608701611486565b9150608086013567ffffffffffffffff8111156115af578182fd5b6115bb88828901611496565b9150509295509295909350565b6000602082840312156115d9578081fd5b5035919050565b60008060008060008060c087890312156115f8578081fd5b86359550602087013561160a81611b58565b9450604087013593506060870135925061162660808801611486565b915060a087013567ffffffffffffffff811115611641578182fd5b61164d89828a01611496565b9150509295509295509295565b6000806040838503121561166c578182fd5b82359150602083013567ffffffffffffffff811115611689578182fd5b61169585828601611496565b9150509250929050565b600080604083850312156116b1578182fd5b50508035926020909101359150565b6000806000606084860312156116d4578283fd5b83359250602084013591506116eb60408501611486565b90509250925092565b600080600060608486031215611708578283fd5b8335925060208401359150604084013567ffffffffffffffff81111561172c578182fd5b61173886828701611496565b9150509250925092565b600080600060608486031215611756578283fd5b505081359360208301359350604090920135919050565b15159052565b60008151808452815b818110156117985760208185018101518683018201520161177c565b818111156117a95782602083870101525b50601f01601f19169290920160200192915050565b6001600160a01b0391909116815260200190565b6001600160a01b038881168252871660208201526040810186905260608101859052831515608082015282151560a082015260e060c0820181905260009061181c90830184611773565b9998505050505050505050565b60208082528251828201819052600091906040908185019080840286018301878501865b838110156118da57888303603f19018552815180516001600160a01b03908116855288820151168885015286810151878501526060808201519085015260808082015115159085015260a08082015160e091906118ac8288018261176d565b505060c0918201519185018190526118c685820183611773565b96890196945050509086019060010161184d565b509098975050505050505050565b60208082526026908201527f4f776e61626c653a206e6577206f776e657220697320746865207a65726f206160408201526564647265737360d01b606082015260800190565b60208082526025908201527f4f776e65723a2063616c6c6572206973206e6f74207468652057697a6172642060408201526437bbb732b960d91b606082015260800190565b60208082526025908201527f4f776e65723a2063616c6c6572206973206e6f7420746865204c6f726520637260408201526432b0ba37b960d91b606082015260800190565b60208082526026908201527f4f776e61626c653a2063616c6c6572206973206e6f7420746865204c6f72652060408201526526b0b9ba32b960d11b606082015260800190565b6020808252818101527f4f776e61626c653a2063616c6c6572206973206e6f7420746865206f776e6572604082015260600190565b6020808252603a908201527f4f776e65723a2063616c6c6572206e65697468657220746865204c6f7265206360408201527f726561746f72206e6f7220746865204c6f7265204d6173746572000000000000606082015260800190565b90815260200190565b918252602082015260400190565b60008219821115611aba57611aba611b2c565b500190565b600082821015611ad157611ad1611b2c565b500390565b600281046001821680611aea57607f821691505b60208210811415611b0b57634e487b7160e01b600052602260045260246000fd5b50919050565b6000600019821415611b2557611b25611b2c565b5060010190565b634e487b7160e01b600052601160045260246000fd5b634e487b7160e01b600052604160045260246000fd5b6001600160a01b038116811461134357600080fdfea26469706673582212204023acc40e80559b2cdfe4647c7cd056e719695266c98a40760dc5f7718c5eec64736f6c63430008000033",
  "linkReferences": {},
  "deployedLinkReferences": {}
}