{
  "_format": "hh-sol-artifact-1",
  "contractName": "ForgottenSouls",
  "sourceName": "contracts/ForgottenSouls.sol",
  "abi": [
    {
      "inputs": [
        {
          "internalType": "address",
          "name": "_infinityVeilAddress",
          "type": "address"
        },
        {
          "internalType": "address",
          "name": "_bookOfLoreAddress",
          "type": "address"
        },
        {
          "internalType": "string",
          "name": "_baseURI",
          "type": "string"
        }
      ],
      "stateMutability": "nonpayable",
      "type": "constructor"
    },
    {
      "anonymous": false,
      "inputs": [
        {
          "indexed": true,
          "internalType": "address",
          "name": "owner",
          "type": "address"
        },
        {
          "indexed": true,
          "internalType": "address",
          "name": "approved",
          "type": "address"
        },
        {
          "indexed": true,
          "internalType": "uint256",
          "name": "tokenId",
          "type": "uint256"
        }
      ],
      "name": "Approval",
      "type": "event"
    },
    {
      "anonymous": false,
      "inputs": [
        {
          "indexed": true,
          "internalType": "address",
          "name": "owner",
          "type": "address"
        },
        {
          "indexed": true,
          "internalType": "address",
          "name": "operator",
          "type": "address"
        },
        {
          "indexed": false,
          "internalType": "bool",
          "name": "approved",
          "type": "bool"
        }
      ],
      "name": "ApprovalForAll",
      "type": "event"
    },
    {
      "anonymous": false,
      "inputs": [
        {
          "indexed": true,
          "internalType": "address",
          "name": "previousOwner",
          "type": "address"
        },
        {
          "indexed": true,
          "internalType": "address",
          "name": "newOwner",
          "type": "address"
        }
      ],
      "name": "OwnershipTransferred",
      "type": "event"
    },
    {
      "anonymous": false,
      "inputs": [
        {
          "indexed": false,
          "internalType": "address",
          "name": "tokenContract",
          "type": "address"
        },
        {
          "indexed": false,
          "internalType": "uint256",
          "name": "tokenId",
          "type": "uint256"
        },
        {
          "indexed": false,
          "internalType": "uint256",
          "name": "soulId",
          "type": "uint256"
        },
        {
          "indexed": false,
          "internalType": "uint256",
          "name": "burnIdx",
          "type": "uint256"
        }
      ],
      "name": "SoulBurned",
      "type": "event"
    },
    {
      "anonymous": false,
      "inputs": [
        {
          "indexed": true,
          "internalType": "address",
          "name": "from",
          "type": "address"
        },
        {
          "indexed": true,
          "internalType": "address",
          "name": "to",
          "type": "address"
        },
        {
          "indexed": true,
          "internalType": "uint256",
          "name": "tokenId",
          "type": "uint256"
        }
      ],
      "name": "Transfer",
      "type": "event"
    },
    {
      "inputs": [],
      "name": "MAX_SUPPLY",
      "outputs": [
        {
          "internalType": "uint256",
          "name": "",
          "type": "uint256"
        }
      ],
      "stateMutability": "view",
      "type": "function"
    },
    {
      "inputs": [],
      "name": "_baseTokenURI",
      "outputs": [
        {
          "internalType": "string",
          "name": "",
          "type": "string"
        }
      ],
      "stateMutability": "view",
      "type": "function"
    },
    {
      "inputs": [
        {
          "internalType": "address",
          "name": "contractAddress",
          "type": "address"
        },
        {
          "internalType": "uint256",
          "name": "offset",
          "type": "uint256"
        },
        {
          "internalType": "uint256",
          "name": "startBlock",
          "type": "uint256"
        }
      ],
      "name": "addFlammable",
      "outputs": [],
      "stateMutability": "nonpayable",
      "type": "function"
    },
    {
      "inputs": [
        {
          "internalType": "address",
          "name": "to",
          "type": "address"
        },
        {
          "internalType": "uint256",
          "name": "tokenId",
          "type": "uint256"
        }
      ],
      "name": "approve",
      "outputs": [],
      "stateMutability": "nonpayable",
      "type": "function"
    },
    {
      "inputs": [
        {
          "internalType": "address",
          "name": "owner",
          "type": "address"
        }
      ],
      "name": "balanceOf",
      "outputs": [
        {
          "internalType": "uint256",
          "name": "",
          "type": "uint256"
        }
      ],
      "stateMutability": "view",
      "type": "function"
    },
    {
      "inputs": [],
      "name": "baseURI",
      "outputs": [
        {
          "internalType": "string",
          "name": "",
          "type": "string"
        }
      ],
      "stateMutability": "view",
      "type": "function"
    },
    {
      "inputs": [],
      "name": "bookOfLoreAddress",
      "outputs": [
        {
          "internalType": "address",
          "name": "",
          "type": "address"
        }
      ],
      "stateMutability": "view",
      "type": "function"
    },
    {
      "inputs": [
        {
          "internalType": "uint256",
          "name": "",
          "type": "uint256"
        }
      ],
      "name": "burnIdxToSoulId",
      "outputs": [
        {
          "internalType": "uint256",
          "name": "",
          "type": "uint256"
        }
      ],
      "stateMutability": "view",
      "type": "function"
    },
    {
      "inputs": [
        {
          "internalType": "uint256",
          "name": "tokenId",
          "type": "uint256"
        }
      ],
      "name": "burnSoulTokenItselfDestroyingItForever",
      "outputs": [],
      "stateMutability": "nonpayable",
      "type": "function"
    },
    {
      "inputs": [
        {
          "internalType": "uint256",
          "name": "",
          "type": "uint256"
        }
      ],
      "name": "flammableAddresses",
      "outputs": [
        {
          "internalType": "address",
          "name": "",
          "type": "address"
        }
      ],
      "stateMutability": "view",
      "type": "function"
    },
    {
      "inputs": [
        {
          "internalType": "address",
          "name": "",
          "type": "address"
        },
        {
          "internalType": "uint256",
          "name": "",
          "type": "uint256"
        }
      ],
      "name": "flammableTokenToSoulId",
      "outputs": [
        {
          "internalType": "uint256",
          "name": "",
          "type": "uint256"
        }
      ],
      "stateMutability": "view",
      "type": "function"
    },
    {
      "inputs": [
        {
          "internalType": "address",
          "name": "",
          "type": "address"
        }
      ],
      "name": "flammables",
      "outputs": [
        {
          "internalType": "uint256",
          "name": "offset",
          "type": "uint256"
        },
        {
          "internalType": "uint256",
          "name": "startBlock",
          "type": "uint256"
        }
      ],
      "stateMutability": "view",
      "type": "function"
    },
    {
      "inputs": [
        {
          "internalType": "contract IERC20",
          "name": "_token",
          "type": "address"
        },
        {
          "internalType": "uint256",
          "name": "_amount",
          "type": "uint256"
        }
      ],
      "name": "forwardERC20s",
      "outputs": [],
      "stateMutability": "nonpayable",
      "type": "function"
    },
    {
      "inputs": [
        {
          "internalType": "uint256",
          "name": "tokenId",
          "type": "uint256"
        }
      ],
      "name": "getApproved",
      "outputs": [
        {
          "internalType": "address",
          "name": "",
          "type": "address"
        }
      ],
      "stateMutability": "view",
      "type": "function"
    },
    {
      "inputs": [],
      "name": "infinityVeilAddress",
      "outputs": [
        {
          "internalType": "address",
          "name": "",
          "type": "address"
        }
      ],
      "stateMutability": "view",
      "type": "function"
    },
    {
      "inputs": [
        {
          "internalType": "address",
          "name": "owner",
          "type": "address"
        },
        {
          "internalType": "address",
          "name": "operator",
          "type": "address"
        }
      ],
      "name": "isApprovedForAll",
      "outputs": [
        {
          "internalType": "bool",
          "name": "",
          "type": "bool"
        }
      ],
      "stateMutability": "view",
      "type": "function"
    },
    {
      "inputs": [
        {
          "internalType": "address",
          "name": "_tokenContract",
          "type": "address"
        },
        {
          "internalType": "uint256",
          "name": "_tokenId",
          "type": "uint256"
        }
      ],
      "name": "mint",
      "outputs": [],
      "stateMutability": "nonpayable",
      "type": "function"
    },
    {
      "inputs": [],
      "name": "name",
      "outputs": [
        {
          "internalType": "string",
          "name": "",
          "type": "string"
        }
      ],
      "stateMutability": "view",
      "type": "function"
    },
    {
      "inputs": [],
      "name": "nextBurnIdx",
      "outputs": [
        {
          "internalType": "uint256",
          "name": "",
          "type": "uint256"
        }
      ],
      "stateMutability": "view",
      "type": "function"
    },
    {
      "inputs": [],
      "name": "numFlammableAddresses",
      "outputs": [
        {
          "internalType": "uint256",
          "name": "",
          "type": "uint256"
        }
      ],
      "stateMutability": "view",
      "type": "function"
    },
    {
      "inputs": [],
      "name": "owner",
      "outputs": [
        {
          "internalType": "address",
          "name": "",
          "type": "address"
        }
      ],
      "stateMutability": "view",
      "type": "function"
    },
    {
      "inputs": [
        {
          "internalType": "uint256",
          "name": "tokenId",
          "type": "uint256"
        }
      ],
      "name": "ownerOf",
      "outputs": [
        {
          "internalType": "address",
          "name": "",
          "type": "address"
        }
      ],
      "stateMutability": "view",
      "type": "function"
    },
    {
      "inputs": [],
      "name": "provenanceHash",
      "outputs": [
        {
          "internalType": "string",
          "name": "",
          "type": "string"
        }
      ],
      "stateMutability": "view",
      "type": "function"
    },
    {
      "inputs": [],
      "name": "renounceOwnership",
      "outputs": [],
      "stateMutability": "nonpayable",
      "type": "function"
    },
    {
      "inputs": [],
      "name": "sacredFlameTokenId",
      "outputs": [
        {
          "internalType": "uint256",
          "name": "",
          "type": "uint256"
        }
      ],
      "stateMutability": "view",
      "type": "function"
    },
    {
      "inputs": [
        {
          "internalType": "address",
          "name": "from",
          "type": "address"
        },
        {
          "internalType": "address",
          "name": "to",
          "type": "address"
        },
        {
          "internalType": "uint256",
          "name": "tokenId",
          "type": "uint256"
        }
      ],
      "name": "safeTransferFrom",
      "outputs": [],
      "stateMutability": "nonpayable",
      "type": "function"
    },
    {
      "inputs": [
        {
          "internalType": "address",
          "name": "from",
          "type": "address"
        },
        {
          "internalType": "address",
          "name": "to",
          "type": "address"
        },
        {
          "internalType": "uint256",
          "name": "tokenId",
          "type": "uint256"
        },
        {
          "internalType": "bytes",
          "name": "_data",
          "type": "bytes"
        }
      ],
      "name": "safeTransferFrom",
      "outputs": [],
      "stateMutability": "nonpayable",
      "type": "function"
    },
    {
      "inputs": [
        {
          "internalType": "address",
          "name": "operator",
          "type": "address"
        },
        {
          "internalType": "bool",
          "name": "approved",
          "type": "bool"
        }
      ],
      "name": "setApprovalForAll",
      "outputs": [],
      "stateMutability": "nonpayable",
      "type": "function"
    },
    {
      "inputs": [
        {
          "internalType": "string",
          "name": "_newBaseURI",
          "type": "string"
        }
      ],
      "name": "setBaseURI",
      "outputs": [],
      "stateMutability": "nonpayable",
      "type": "function"
    },
    {
      "inputs": [
        {
          "internalType": "address",
          "name": "_bookOfLoreAddress",
          "type": "address"
        }
      ],
      "name": "setBookOfLoreContractAddress",
      "outputs": [],
      "stateMutability": "nonpayable",
      "type": "function"
    },
    {
      "inputs": [
        {
          "internalType": "uint256",
          "name": "_sacredFlameTokenId",
          "type": "uint256"
        }
      ],
      "name": "setFlameTokenId",
      "outputs": [],
      "stateMutability": "nonpayable",
      "type": "function"
    },
    {
      "inputs": [
        {
          "internalType": "address",
          "name": "contractAddress",
          "type": "address"
        },
        {
          "internalType": "uint256",
          "name": "offset",
          "type": "uint256"
        },
        {
          "internalType": "uint256",
          "name": "startBlock",
          "type": "uint256"
        }
      ],
      "name": "setFlammable",
      "outputs": [],
      "stateMutability": "nonpayable",
      "type": "function"
    },
    {
      "inputs": [
        {
          "internalType": "address",
          "name": "_infinityVeilAddress",
          "type": "address"
        }
      ],
      "name": "setInfinityVeilContractAddress",
      "outputs": [],
      "stateMutability": "nonpayable",
      "type": "function"
    },
    {
      "inputs": [
        {
          "internalType": "string",
          "name": "_newProvenanceHash",
          "type": "string"
        }
      ],
      "name": "setProvenanceHash",
      "outputs": [],
      "stateMutability": "nonpayable",
      "type": "function"
    },
    {
      "inputs": [
        {
          "internalType": "uint256",
          "name": "",
          "type": "uint256"
        }
      ],
      "name": "soulIdToBurnIdx",
      "outputs": [
        {
          "internalType": "uint256",
          "name": "",
          "type": "uint256"
        }
      ],
      "stateMutability": "view",
      "type": "function"
    },
    {
      "inputs": [
        {
          "internalType": "uint256",
          "name": "",
          "type": "uint256"
        }
      ],
      "name": "soulIdToFlammableTokenId",
      "outputs": [
        {
          "internalType": "uint256",
          "name": "",
          "type": "uint256"
        }
      ],
      "stateMutability": "view",
      "type": "function"
    },
    {
      "inputs": [
        {
          "internalType": "bytes4",
          "name": "interfaceId",
          "type": "bytes4"
        }
      ],
      "name": "supportsInterface",
      "outputs": [
        {
          "internalType": "bool",
          "name": "",
          "type": "bool"
        }
      ],
      "stateMutability": "view",
      "type": "function"
    },
    {
      "inputs": [],
      "name": "symbol",
      "outputs": [
        {
          "internalType": "string",
          "name": "",
          "type": "string"
        }
      ],
      "stateMutability": "view",
      "type": "function"
    },
    {
      "inputs": [
        {
          "internalType": "uint256",
          "name": "index",
          "type": "uint256"
        }
      ],
      "name": "tokenByIndex",
      "outputs": [
        {
          "internalType": "uint256",
          "name": "",
          "type": "uint256"
        }
      ],
      "stateMutability": "view",
      "type": "function"
    },
    {
      "inputs": [
        {
          "internalType": "address",
          "name": "owner",
          "type": "address"
        },
        {
          "internalType": "uint256",
          "name": "index",
          "type": "uint256"
        }
      ],
      "name": "tokenOfOwnerByIndex",
      "outputs": [
        {
          "internalType": "uint256",
          "name": "",
          "type": "uint256"
        }
      ],
      "stateMutability": "view",
      "type": "function"
    },
    {
      "inputs": [
        {
          "internalType": "uint256",
          "name": "tokenId",
          "type": "uint256"
        }
      ],
      "name": "tokenURI",
      "outputs": [
        {
          "internalType": "string",
          "name": "",
          "type": "string"
        }
      ],
      "stateMutability": "view",
      "type": "function"
    },
    {
      "inputs": [
        {
          "internalType": "address",
          "name": "_owner",
          "type": "address"
        }
      ],
      "name": "tokensOfOwner",
      "outputs": [
        {
          "internalType": "uint256[]",
          "name": "",
          "type": "uint256[]"
        }
      ],
      "stateMutability": "view",
      "type": "function"
    },
    {
      "inputs": [],
      "name": "totalSupply",
      "outputs": [
        {
          "internalType": "uint256",
          "name": "",
          "type": "uint256"
        }
      ],
      "stateMutability": "view",
      "type": "function"
    },
    {
      "inputs": [
        {
          "internalType": "address",
          "name": "from",
          "type": "address"
        },
        {
          "internalType": "address",
          "name": "to",
          "type": "address"
        },
        {
          "internalType": "uint256",
          "name": "tokenId",
          "type": "uint256"
        }
      ],
      "name": "transferFrom",
      "outputs": [],
      "stateMutability": "nonpayable",
      "type": "function"
    },
    {
      "inputs": [
        {
          "internalType": "address",
          "name": "newOwner",
          "type": "address"
        }
      ],
      "name": "transferOwnership",
      "outputs": [],
      "stateMutability": "nonpayable",
      "type": "function"
    },
    {
      "inputs": [
        {
          "internalType": "bytes",
          "name": "s",
          "type": "bytes"
        }
      ],
      "name": "uploadAttributes",
      "outputs": [],
      "stateMutability": "nonpayable",
      "type": "function"
    },
    {
      "inputs": [
        {
          "internalType": "bytes",
          "name": "s",
          "type": "bytes"
        }
      ],
      "name": "uploadImages",
      "outputs": [],
      "stateMutability": "nonpayable",
      "type": "function"
    },
    {
      "inputs": [],
      "name": "withdrawAll",
      "outputs": [],
      "stateMutability": "payable",
      "type": "function"
    }
  ],
  "bytecode": "0x6080604052600060165560006017553480156200001b57600080fd5b506040516200342d3803806200342d8339810160408190526200003e9162000297565b604080518082018252600e81526d466f72676f7474656e536f756c7360901b602080830191825283518085019094526005845264534f554c5360d81b9084015281519192916200009191600091620001d4565b508051620000a7906001906020840190620001d4565b50506001600a5550620000c3620000bd62000107565b6200010b565b601380546001600160a01b038086166001600160a01b0319928316179092556012805492851692909116919091179055620000fe816200015d565b50505062000416565b3390565b600b80546001600160a01b038381166001600160a01b0319831681179093556040519116919082907f8be0079c531659141344cd1fd0a4f28419497f9722a3daafe3b4186f6b6457e090600090a35050565b6200016762000107565b6001600160a01b03166200017a620001c5565b6001600160a01b031614620001ac5760405162461bcd60e51b8152600401620001a3906200038e565b60405180910390fd5b8051620001c1906015906020840190620001d4565b5050565b600b546001600160a01b031690565b828054620001e290620003c3565b90600052602060002090601f01602090048101928262000206576000855562000251565b82601f106200022157805160ff191683800117855562000251565b8280016001018555821562000251579182015b828111156200025157825182559160200191906001019062000234565b506200025f92915062000263565b5090565b5b808211156200025f576000815560010162000264565b80516001600160a01b03811681146200029257600080fd5b919050565b600080600060608486031215620002ac578283fd5b620002b7846200027a565b92506020620002c88186016200027a565b60408601519093506001600160401b0380821115620002e5578384fd5b818701915087601f830112620002f9578384fd5b8151818111156200030e576200030e62000400565b604051601f8201601f191681018501838111828210171562000334576200033462000400565b60405281815283820185018a10156200034b578586fd5b8592505b818310156200036e57838301850151818401860152918401916200034f565b818311156200037f57858583830101525b80955050505050509250925092565b6020808252818101527f4f776e61626c653a2063616c6c6572206973206e6f7420746865206f776e6572604082015260600190565b600281046001821680620003d857607f821691505b60208210811415620003fa57634e487b7160e01b600052602260045260246000fd5b50919050565b634e487b7160e01b600052604160045260246000fd5b61300780620004266000396000f3fe6080604052600436106102925760003560e01c8063715018a61161015a578063b61fca16116100c1578063c87b56dd1161007a578063c87b56dd1461075c578063cfc86f7b1461077c578063d4cb1a4a14610791578063e756ed54146107bf578063e985e9c5146107df578063f2fde38b146107ff57610292565b8063b61fca161461037e578063b6e6e1c1146106c7578063b7fe71f7146106e7578063b88d4fde14610707578063c66dc90c14610727578063c6ab67a31461074757610292565b806389d93e2b1161011357806389d93e2b146106285780638da5cb5b1461064857806395d89b411461065d5780639727151a146106725780639a57834114610692578063a22cb465146106a757610292565b8063715018a6146105895780637a86aa6b1461059e57806383e2fa1b146105be57806383f3958a146105de5780638462151c146105f3578063853828b61461062057610292565b806331c78bed116101fe5780634f6ccce7116101b75780634f6ccce7146104df57806355f804b3146104ff5780636352211e1461051f5780636c0360eb1461053f5780636c319a221461055457806370a082311461056957610292565b806331c78bed1461043557806332cb6b0c1461044a5780633bfec1b71461045f57806340c10f191461047f57806342842e0e1461049f578063469caf86146104bf57610292565b806312e2cfca1161025057806312e2cfca1461037e57806313e269041461039e57806318160ddd146103c05780631f639eef146103d557806323b872dd146103f55780632f745c591461041557610292565b8062c8fe871461029757806301ffc9a7146102b957806306fdde03146102ef578063081812fc14610311578063095ea7b31461033e578063109695231461035e575b600080fd5b3480156102a357600080fd5b506102b76102b23660046125e3565b61081f565b005b3480156102c557600080fd5b506102d96102d43660046124f8565b610861565b6040516102e6919061282d565b60405180910390f35b3480156102fb57600080fd5b5061030461088e565b6040516102e69190612838565b34801561031d57600080fd5b5061033161032c3660046125e3565b610920565b6040516102e69190612701565b34801561034a57600080fd5b506102b761035936600461247d565b610963565b34801561036a57600080fd5b506102b761037936600461259d565b6109fb565b34801561038a57600080fd5b506102b7610399366004612530565b610a51565b3480156103aa57600080fd5b506103b3610a90565b6040516102e69190612e60565b3480156103cc57600080fd5b506103b3610a96565b3480156103e157600080fd5b506103b36103f036600461247d565b610a9c565b34801561040157600080fd5b506102b7610410366004612393565b610ab9565b34801561042157600080fd5b506103b361043036600461247d565b610aeb565b34801561044157600080fd5b506103b3610b3d565b34801561045657600080fd5b506103b3610b43565b34801561046b57600080fd5b506103b361047a3660046125e3565b610b49565b34801561048b57600080fd5b506102b761049a36600461247d565b610b5b565b3480156104ab57600080fd5b506102b76104ba366004612393565b610f7e565b3480156104cb57600080fd5b506102b76104da3660046124a8565b610f99565b3480156104eb57600080fd5b506103b36104fa3660046125e3565b61102e565b34801561050b57600080fd5b506102b761051a36600461259d565b611089565b34801561052b57600080fd5b5061033161053a3660046125e3565b6110db565b34801561054b57600080fd5b50610304611110565b34801561056057600080fd5b5061033161111f565b34801561057557600080fd5b506103b361058436600461231c565b61112e565b34801561059557600080fd5b506102b7611172565b3480156105aa57600080fd5b506102b76105b936600461231c565b6111bd565b3480156105ca57600080fd5b506102b76105d936600461231c565b61121e565b3480156105ea57600080fd5b506103b361127f565b3480156105ff57600080fd5b5061061361060e36600461231c565b611285565b6040516102e691906127e9565b6102b7611366565b34801561063457600080fd5b506103b36106433660046125e3565b6113c9565b34801561065457600080fd5b506103316113db565b34801561066957600080fd5b506103046113ea565b34801561067e57600080fd5b506102b761068d36600461247d565b6113f9565b34801561069e57600080fd5b506103316114b8565b3480156106b357600080fd5b506102b76106c2366004612450565b6114c7565b3480156106d357600080fd5b506102b76106e23660046125e3565b611595565b3480156106f357600080fd5b506102b76107023660046124a8565b6115d9565b34801561071357600080fd5b506102b76107223660046123d3565b61163a565b34801561073357600080fd5b506103316107423660046125e3565b611679565b34801561075357600080fd5b506103046116a3565b34801561076857600080fd5b506103046107773660046125e3565b611731565b34801561078857600080fd5b5061030461178a565b34801561079d57600080fd5b506107b16107ac36600461231c565b611797565b6040516102e6929190612e69565b3480156107cb57600080fd5b506103b36107da3660046125e3565b6117b0565b3480156107eb57600080fd5b506102d96107fa36600461235b565b6117c2565b34801561080b57600080fd5b506102b761081a36600461231c565b6117f0565b61083061082a61185e565b82611862565b6108555760405162461bcd60e51b815260040161084c90612e10565b60405180910390fd5b61085e816118e7565b50565b60006001600160e01b0319821663780e9d6360e01b148061088657506108868261198e565b90505b919050565b60606000805461089d90612ef2565b80601f01602080910402602001604051908101604052809291908181526020018280546108c990612ef2565b80156109165780601f106108eb57610100808354040283529160200191610916565b820191906000526020600020905b8154815290600101906020018083116108f957829003601f168201915b5050505050905090565b600061092b826119ce565b6109475760405162461bcd60e51b815260040161084c90612b9b565b506000908152600460205260409020546001600160a01b031690565b600061096e826110db565b9050806001600160a01b0316836001600160a01b031614156109a25760405162461bcd60e51b815260040161084c90612cb4565b806001600160a01b03166109b461185e565b6001600160a01b031614806109d057506109d0816107fa61185e565b6109ec5760405162461bcd60e51b815260040161084c90612a76565b6109f683836119eb565b505050565b610a0361185e565b6001600160a01b0316610a146113db565b6001600160a01b031614610a3a5760405162461bcd60e51b815260040161084c90612be7565b8051610a4d906014906020840190612213565b5050565b610a5961185e565b6001600160a01b0316610a6a6113db565b6001600160a01b031614610a4d5760405162461bcd60e51b815260040161084c90612be7565b600d5490565b60085490565b601160209081526000928352604080842090915290825290205481565b610ac461082a61185e565b610ae05760405162461bcd60e51b815260040161084c90612cf5565b6109f6838383611a59565b6000610af68361112e565b8210610b145760405162461bcd60e51b815260040161084c9061284b565b506001600160a01b03919091166000908152600660209081526040808320938352929052205490565b60165481565b61045881565b60106020526000908152604090205481565b6002600a541415610b7e5760405162461bcd60e51b815260040161084c90612dd9565b6002600a556001600160a01b0382166000908152600c602052604090206001015415801590610bc757506001600160a01b0382166000908152600c602052604090206001015443115b610be35760405162461bcd60e51b815260040161084c90612a4f565b610beb61185e565b6001600160a01b0316826001600160a01b0316636352211e836040518263ffffffff1660e01b8152600401610c209190612e60565b60206040518083038186803b158015610c3857600080fd5b505afa158015610c4c573d6000803e3d6000fd5b505050506040513d601f19601f82011682018060405250810190610c70919061233f565b6001600160a01b031614610c965760405162461bcd60e51b815260040161084c90612d92565b6013546000906001600160a01b031662fdd58e610cb161185e565b6017546040518363ffffffff1660e01b8152600401610cd1929190612752565b60206040518083038186803b158015610ce957600080fd5b505afa158015610cfd573d6000803e3d6000fd5b505050506040513d601f19601f82011682018060405250810190610d2191906125fb565b11610d3e5760405162461bcd60e51b815260040161084c906129e0565b61045860165410610d615760405162461bcd60e51b815260040161084c90612db5565b6001600160a01b0382166000908152600c6020526040812054610d849083612e83565b6000818152600e60209081526040808320869055601654600f83528184208190558352601082528083208490556001600160a01b038088168452601183528184208785529092529091208290556012549192501615610e475760125460405163cfc2450160e01b81526001600160a01b039091169063cfc2450190610e149086908690600090819060040161276b565b600060405180830381600087803b158015610e2e57600080fd5b505af1158015610e42573d6000803e3d6000fd5b505050505b6013546001600160a01b031663f5298aca610e6061185e565b60175460016040518463ffffffff1660e01b8152600401610e83939291906127a2565b600060405180830381600087803b158015610e9d57600080fd5b505af1158015610eb1573d6000803e3d6000fd5b5050604051630852cd8d60e31b81526001600160a01b03861692506342966c689150610ee1908590600401612e60565b600060405180830381600087803b158015610efb57600080fd5b505af1158015610f0f573d6000803e3d6000fd5b50505050610f24610f1e61185e565b82611b86565b7f260eb26ec2743e08ce9ffbdc6282e315cefa254b413b254e3d575cc3f2d78089838383601654604051610f5b94939291906127c3565b60405180910390a1601654610f71906001612e83565b60165550506001600a5550565b6109f68383836040518060200160405280600081525061163a565b610fa161185e565b6001600160a01b0316610fb26113db565b6001600160a01b031614610fd85760405162461bcd60e51b815260040161084c90612be7565b600d80546001810182556000919091527fd7b6990105719101dabeb77144f2a3385c8033acd3af97e9423a695e81ad1eb50180546001600160a01b0319166001600160a01b0385161790556109f68383836115d9565b6000611038610a96565b82106110565760405162461bcd60e51b815260040161084c90612d46565b6008828154811061107757634e487b7160e01b600052603260045260246000fd5b90600052602060002001549050919050565b61109161185e565b6001600160a01b03166110a26113db565b6001600160a01b0316146110c85760405162461bcd60e51b815260040161084c90612be7565b8051610a4d906015906020840190612213565b6000818152600260205260408120546001600160a01b0316806108865760405162461bcd60e51b815260040161084c90612b1d565b60606015805461089d90612ef2565b6013546001600160a01b031681565b60006001600160a01b0382166111565760405162461bcd60e51b815260040161084c90612ad3565b506001600160a01b031660009081526003602052604090205490565b61117a61185e565b6001600160a01b031661118b6113db565b6001600160a01b0316146111b15760405162461bcd60e51b815260040161084c90612be7565b6111bb6000611ba0565b565b6111c561185e565b6001600160a01b03166111d66113db565b6001600160a01b0316146111fc5760405162461bcd60e51b815260040161084c90612be7565b601380546001600160a01b0319166001600160a01b0392909216919091179055565b61122661185e565b6001600160a01b03166112376113db565b6001600160a01b03161461125d5760405162461bcd60e51b815260040161084c90612be7565b601280546001600160a01b0319166001600160a01b0392909216919091179055565b60175481565b606060006112928361112e565b9050806112af575050604080516000815260208101909152610889565b60008167ffffffffffffffff8111156112d857634e487b7160e01b600052604160045260246000fd5b604051908082528060200260200182016040528015611301578160200160208202803683370190505b50905060005b82811015611356576113198582610aeb565b82828151811061133957634e487b7160e01b600052603260045260246000fd5b60209081029190910101528061134e81612f27565b915050611307565b5091506108899050565b50919050565b61136e61185e565b6001600160a01b031661137f6113db565b6001600160a01b0316146113a55760405162461bcd60e51b815260040161084c90612be7565b60405133904780156108fc02916000818181858888f193505050506111bb57600080fd5b600f6020526000908152604090205481565b600b546001600160a01b031690565b60606001805461089d90612ef2565b61140161185e565b6001600160a01b03166114126113db565b6001600160a01b0316146114385760405162461bcd60e51b815260040161084c90612be7565b60405163a9059cbb60e01b81526001600160a01b0383169063a9059cbb906114669033908590600401612752565b602060405180830381600087803b15801561148057600080fd5b505af1158015611494573d6000803e3d6000fd5b505050506040513d601f19601f820116820180604052508101906109f691906124dc565b6012546001600160a01b031681565b6114cf61185e565b6001600160a01b0316826001600160a01b031614156115005760405162461bcd60e51b815260040161084c906129a9565b806005600061150d61185e565b6001600160a01b03908116825260208083019390935260409182016000908120918716808252919093529120805460ff19169215159290921790915561155161185e565b6001600160a01b03167f17307eab39ab6107e8899845ad3d59bd9653f200f220920489ca2b5937696c3183604051611589919061282d565b60405180910390a35050565b61159d61185e565b6001600160a01b03166115ae6113db565b6001600160a01b0316146115d45760405162461bcd60e51b815260040161084c90612be7565b601755565b6115e161185e565b6001600160a01b03166115f26113db565b6001600160a01b0316146116185760405162461bcd60e51b815260040161084c90612be7565b6001600160a01b039092166000908152600c6020526040902090815560010155565b61164b61164561185e565b83611862565b6116675760405162461bcd60e51b815260040161084c90612cf5565b61167384848484611bf2565b50505050565b600d818154811061168957600080fd5b6000918252602090912001546001600160a01b0316905081565b601480546116b090612ef2565b80601f01602080910402602001604051908101604052809291908181526020018280546116dc90612ef2565b80156117295780601f106116fe57610100808354040283529160200191611729565b820191906000526020600020905b81548152906001019060200180831161170c57829003601f168201915b505050505081565b606061173c826119ce565b6117585760405162461bcd60e51b815260040161084c90612c65565b601561176383611c25565b60405160200161177492919061265b565b6040516020818303038152906040529050919050565b601580546116b090612ef2565b600c602052600090815260409020805460019091015482565b600e6020526000908152604090205481565b6001600160a01b03918216600090815260056020908152604080832093909416825291909152205460ff1690565b6117f861185e565b6001600160a01b03166118096113db565b6001600160a01b03161461182f5760405162461bcd60e51b815260040161084c90612be7565b6001600160a01b0381166118555760405162461bcd60e51b815260040161084c906128e8565b61085e81611ba0565b3390565b600061186d826119ce565b6118895760405162461bcd60e51b815260040161084c90612a03565b6000611894836110db565b9050806001600160a01b0316846001600160a01b031614806118cf5750836001600160a01b03166118c484610920565b6001600160a01b0316145b806118df57506118df81856117c2565b949350505050565b60006118f2826110db565b905061190081600084611d40565b61190b6000836119eb565b6001600160a01b0381166000908152600360205260408120805460019290611934908490612eaf565b909155505060008281526002602052604080822080546001600160a01b0319169055518391906001600160a01b038416907fddf252ad1be2c89b69c2b068fc378daa952ba7f163c4a11628f55a4df523b3ef908390a45050565b60006001600160e01b031982166380ac58cd60e01b14806119bf57506001600160e01b03198216635b5e139f60e01b145b80610886575061088682611dc9565b6000908152600260205260409020546001600160a01b0316151590565b600081815260046020526040902080546001600160a01b0319166001600160a01b0384169081179091558190611a20826110db565b6001600160a01b03167f8c5be1e5ebec7d5bd14f71427d1e84f3dd0314c0f7b2291e5b200ac8c7c3b92560405160405180910390a45050565b826001600160a01b0316611a6c826110db565b6001600160a01b031614611a925760405162461bcd60e51b815260040161084c90612c1c565b6001600160a01b038216611ab85760405162461bcd60e51b815260040161084c90612965565b611ac3838383611d40565b611ace6000826119eb565b6001600160a01b0383166000908152600360205260408120805460019290611af7908490612eaf565b90915550506001600160a01b0382166000908152600360205260408120805460019290611b25908490612e83565b909155505060008181526002602052604080822080546001600160a01b0319166001600160a01b0386811691821790925591518493918716917fddf252ad1be2c89b69c2b068fc378daa952ba7f163c4a11628f55a4df523b3ef91a4505050565b610a4d828260405180602001604052806000815250611de2565b600b80546001600160a01b038381166001600160a01b0319831681179093556040519116919082907f8be0079c531659141344cd1fd0a4f28419497f9722a3daafe3b4186f6b6457e090600090a35050565b611bfd848484611a59565b611c0984848484611e15565b6116735760405162461bcd60e51b815260040161084c90612896565b606081611c4a57506040805180820190915260018152600360fc1b6020820152610889565b8160005b8115611c745780611c5e81612f27565b9150611c6d9050600a83612e9b565b9150611c4e565b60008167ffffffffffffffff811115611c9d57634e487b7160e01b600052604160045260246000fd5b6040519080825280601f01601f191660200182016040528015611cc7576020820181803683370190505b5090505b84156118df57611cdc600183612eaf565b9150611ce9600a86612f42565b611cf4906030612e83565b60f81b818381518110611d1757634e487b7160e01b600052603260045260246000fd5b60200101906001600160f81b031916908160001a905350611d39600a86612e9b565b9450611ccb565b611d4b8383836109f6565b6001600160a01b038316611d6757611d6281611f30565b611d8a565b816001600160a01b0316836001600160a01b031614611d8a57611d8a8382611f74565b6001600160a01b038216611da657611da181612011565b6109f6565b826001600160a01b0316826001600160a01b0316146109f6576109f682826120ea565b6001600160e01b031981166301ffc9a760e01b14919050565b611dec838361212e565b611df96000848484611e15565b6109f65760405162461bcd60e51b815260040161084c90612896565b6000611e29846001600160a01b031661220d565b15611f2557836001600160a01b031663150b7a02611e4561185e565b8786866040518563ffffffff1660e01b8152600401611e679493929190612715565b602060405180830381600087803b158015611e8157600080fd5b505af1925050508015611eb1575060408051601f3d908101601f19168201909252611eae91810190612514565b60015b611f0b573d808015611edf576040519150601f19603f3d011682016040523d82523d6000602084013e611ee4565b606091505b508051611f035760405162461bcd60e51b815260040161084c90612896565b805181602001fd5b6001600160e01b031916630a85bd0160e11b1490506118df565b506001949350505050565b600880546000838152600960205260408120829055600182018355919091527ff3f7a9fe364faab93b216da50a3214154f22a0a2b415b23a84c8169e8b636ee30155565b60006001611f818461112e565b611f8b9190612eaf565b600083815260076020526040902054909150808214611fde576001600160a01b03841660009081526006602090815260408083208584528252808320548484528184208190558352600790915290208190555b5060009182526007602090815260408084208490556001600160a01b039094168352600681528383209183525290812055565b60085460009061202390600190612eaf565b6000838152600960205260408120546008805493945090928490811061205957634e487b7160e01b600052603260045260246000fd5b90600052602060002001549050806008838154811061208857634e487b7160e01b600052603260045260246000fd5b60009182526020808320909101929092558281526009909152604080822084905585825281205560088054806120ce57634e487b7160e01b600052603160045260246000fd5b6001900381819060005260206000200160009055905550505050565b60006120f58361112e565b6001600160a01b039093166000908152600660209081526040808320868452825280832085905593825260079052919091209190915550565b6001600160a01b0382166121545760405162461bcd60e51b815260040161084c90612b66565b61215d816119ce565b1561217a5760405162461bcd60e51b815260040161084c9061292e565b61218660008383611d40565b6001600160a01b03821660009081526003602052604081208054600192906121af908490612e83565b909155505060008181526002602052604080822080546001600160a01b0319166001600160a01b03861690811790915590518392907fddf252ad1be2c89b69c2b068fc378daa952ba7f163c4a11628f55a4df523b3ef908290a45050565b3b151590565b82805461221f90612ef2565b90600052602060002090601f0160209004810192826122415760008555612287565b82601f1061225a57805160ff1916838001178555612287565b82800160010185558215612287579182015b8281111561228757825182559160200191906001019061226c565b50612293929150612297565b5090565b5b808211156122935760008155600101612298565b600067ffffffffffffffff808411156122c7576122c7612f82565b604051601f8501601f1916810160200182811182821017156122eb576122eb612f82565b60405284815291508183850186101561230357600080fd5b8484602083013760006020868301015250509392505050565b60006020828403121561232d578081fd5b813561233881612f98565b9392505050565b600060208284031215612350578081fd5b815161233881612f98565b6000806040838503121561236d578081fd5b823561237881612f98565b9150602083013561238881612f98565b809150509250929050565b6000806000606084860312156123a7578081fd5b83356123b281612f98565b925060208401356123c281612f98565b929592945050506040919091013590565b600080600080608085870312156123e8578081fd5b84356123f381612f98565b9350602085013561240381612f98565b925060408501359150606085013567ffffffffffffffff811115612425578182fd5b8501601f81018713612435578182fd5b612444878235602084016122ac565b91505092959194509250565b60008060408385031215612462578182fd5b823561246d81612f98565b9150602083013561238881612fad565b6000806040838503121561248f578182fd5b823561249a81612f98565b946020939093013593505050565b6000806000606084860312156124bc578283fd5b83356124c781612f98565b95602085013595506040909401359392505050565b6000602082840312156124ed578081fd5b815161233881612fad565b600060208284031215612509578081fd5b813561233881612fbb565b600060208284031215612525578081fd5b815161233881612fbb565b60008060208385031215612542578182fd5b823567ffffffffffffffff80821115612559578384fd5b818501915085601f83011261256c578384fd5b81358181111561257a578485fd5b86602082850101111561258b578485fd5b60209290920196919550909350505050565b6000602082840312156125ae578081fd5b813567ffffffffffffffff8111156125c4578182fd5b8201601f810184136125d4578182fd5b6118df848235602084016122ac565b6000602082840312156125f4578081fd5b5035919050565b60006020828403121561260c578081fd5b5051919050565b6000815180845261262b816020860160208601612ec6565b601f01601f19169290920160200192915050565b60008151612651818560208601612ec6565b9290920192915050565b825460009081906002810460018083168061267757607f831692505b602080841082141561269757634e487b7160e01b87526022600452602487fd5b8180156126ab57600181146126bc576126e8565b60ff198616895284890196506126e8565b6126c58b612e77565b885b868110156126e05781548b8201529085019083016126c7565b505084890196505b5050505050506126f8818561263f565b95945050505050565b6001600160a01b0391909116815260200190565b6001600160a01b038581168252841660208201526040810183905260806060820181905260009061274890830184612613565b9695505050505050565b6001600160a01b03929092168252602082015260400190565b6001600160a01b03949094168452602084019290925260408301521515606082015260a06080820181905260009082015260c00190565b6001600160a01b039390931683526020830191909152604082015260600190565b6001600160a01b0394909416845260208401929092526040830152606082015260800190565b6020808252825182820181905260009190848201906040850190845b8181101561282157835183529284019291840191600101612805565b50909695505050505050565b901515815260200190565b6000602082526123386020830184612613565b6020808252602b908201527f455243373231456e756d657261626c653a206f776e657220696e646578206f7560408201526a74206f6620626f756e647360a81b606082015260800190565b60208082526032908201527f4552433732313a207472616e7366657220746f206e6f6e20455243373231526560408201527131b2b4bb32b91034b6b83632b6b2b73a32b960711b606082015260800190565b60208082526026908201527f4f776e61626c653a206e6577206f776e657220697320746865207a65726f206160408201526564647265737360d01b606082015260800190565b6020808252601c908201527f4552433732313a20746f6b656e20616c7265616479206d696e74656400000000604082015260600190565b60208082526024908201527f4552433732313a207472616e7366657220746f20746865207a65726f206164646040820152637265737360e01b606082015260800190565b60208082526019908201527f4552433732313a20617070726f766520746f2063616c6c657200000000000000604082015260600190565b6020808252600990820152684e4f5f464c414d455360b81b604082015260600190565b6020808252602c908201527f4552433732313a206f70657261746f7220717565727920666f72206e6f6e657860408201526b34b9ba32b73a103a37b5b2b760a11b606082015260800190565b6020808252600d908201526c4e4f545f464c414d4d41424c4560981b604082015260600190565b60208082526038908201527f4552433732313a20617070726f76652063616c6c6572206973206e6f74206f7760408201527f6e6572206e6f7220617070726f76656420666f7220616c6c0000000000000000606082015260800190565b6020808252602a908201527f4552433732313a2062616c616e636520717565727920666f7220746865207a65604082015269726f206164647265737360b01b606082015260800190565b60208082526029908201527f4552433732313a206f776e657220717565727920666f72206e6f6e657869737460408201526832b73a103a37b5b2b760b91b606082015260800190565b6020808252818101527f4552433732313a206d696e7420746f20746865207a65726f2061646472657373604082015260600190565b6020808252602c908201527f4552433732313a20617070726f76656420717565727920666f72206e6f6e657860408201526b34b9ba32b73a103a37b5b2b760a11b606082015260800190565b6020808252818101527f4f776e61626c653a2063616c6c6572206973206e6f7420746865206f776e6572604082015260600190565b60208082526029908201527f4552433732313a207472616e73666572206f6620746f6b656e2074686174206960408201526839903737ba1037bbb760b91b606082015260800190565b6020808252602f908201527f4552433732314d657461646174613a2055524920717565727920666f72206e6f60408201526e3732bc34b9ba32b73a103a37b5b2b760891b606082015260800190565b60208082526021908201527f4552433732313a20617070726f76616c20746f2063757272656e74206f776e656040820152603960f91b606082015260800190565b60208082526031908201527f4552433732313a207472616e736665722063616c6c6572206973206e6f74206f6040820152701ddb995c881b9bdc88185c1c1c9bdd9959607a1b606082015260800190565b6020808252602c908201527f455243373231456e756d657261626c653a20676c6f62616c20696e646578206f60408201526b7574206f6620626f756e647360a01b606082015260800190565b6020808252600990820152682727aa2fa7aba722a960b91b604082015260600190565b6020808252600a90820152694d41585f535550504c5960b01b604082015260600190565b6020808252601f908201527f5265656e7472616e637947756172643a207265656e7472616e742063616c6c00604082015260600190565b60208082526030908201527f4552433732314275726e61626c653a2063616c6c6572206973206e6f74206f7760408201526f1b995c881b9bdc88185c1c1c9bdd995960821b606082015260800190565b90815260200190565b918252602082015260400190565b60009081526020902090565b60008219821115612e9657612e96612f56565b500190565b600082612eaa57612eaa612f6c565b500490565b600082821015612ec157612ec1612f56565b500390565b60005b83811015612ee1578181015183820152602001612ec9565b838111156116735750506000910152565b600281046001821680612f0657607f821691505b6020821081141561136057634e487b7160e01b600052602260045260246000fd5b6000600019821415612f3b57612f3b612f56565b5060010190565b600082612f5157612f51612f6c565b500690565b634e487b7160e01b600052601160045260246000fd5b634e487b7160e01b600052601260045260246000fd5b634e487b7160e01b600052604160045260246000fd5b6001600160a01b038116811461085e57600080fd5b801515811461085e57600080fd5b6001600160e01b03198116811461085e57600080fdfea26469706673582212206a4f0c323f1624ef3b87034face1994f8b105c11cc4f19a582b9fc22d8d7267464736f6c63430008000033",
  "linkReferences": {},
  "deployedLinkReferences": {}
}