{
  "_format": "hh-sol-artifact-1",
  "contractName": "ForgottenRunesWizardsCult",
  "sourceName": "contracts/ForgottenRunesWizardsCult.sol",
  "abi": [
    {
      "inputs": [
        {
          "internalType": "string",
          "name": "baseURI",
          "type": "string"
        }
      ],
      "stateMutability": "nonpayable",
      "type": "constructor"
    },
    {
      "anonymous": false,
      "inputs": [
        {
          "indexed": true,
          "internalType": "address",
          "name": "owner",
          "type": "address"
        },
        {
          "indexed": true,
          "internalType": "address",
          "name": "approved",
          "type": "address"
        },
        {
          "indexed": true,
          "internalType": "uint256",
          "name": "tokenId",
          "type": "uint256"
        }
      ],
      "name": "Approval",
      "type": "event"
    },
    {
      "anonymous": false,
      "inputs": [
        {
          "indexed": true,
          "internalType": "address",
          "name": "owner",
          "type": "address"
        },
        {
          "indexed": true,
          "internalType": "address",
          "name": "operator",
          "type": "address"
        },
        {
          "indexed": false,
          "internalType": "bool",
          "name": "approved",
          "type": "bool"
        }
      ],
      "name": "ApprovalForAll",
      "type": "event"
    },
    {
      "anonymous": false,
      "inputs": [
        {
          "indexed": true,
          "internalType": "address",
          "name": "previousOwner",
          "type": "address"
        },
        {
          "indexed": true,
          "internalType": "address",
          "name": "newOwner",
          "type": "address"
        }
      ],
      "name": "OwnershipTransferred",
      "type": "event"
    },
    {
      "anonymous": false,
      "inputs": [
        {
          "indexed": true,
          "internalType": "address",
          "name": "from",
          "type": "address"
        },
        {
          "indexed": true,
          "internalType": "address",
          "name": "to",
          "type": "address"
        },
        {
          "indexed": true,
          "internalType": "uint256",
          "name": "tokenId",
          "type": "uint256"
        }
      ],
      "name": "Transfer",
      "type": "event"
    },
    {
      "inputs": [],
      "name": "MAX_WIZARDS",
      "outputs": [
        {
          "internalType": "uint256",
          "name": "",
          "type": "uint256"
        }
      ],
      "stateMutability": "view",
      "type": "function"
    },
    {
      "inputs": [],
      "name": "METADATA_PROVENANCE_HASH",
      "outputs": [
        {
          "internalType": "string",
          "name": "",
          "type": "string"
        }
      ],
      "stateMutability": "view",
      "type": "function"
    },
    {
      "inputs": [],
      "name": "R",
      "outputs": [
        {
          "internalType": "string",
          "name": "",
          "type": "string"
        }
      ],
      "stateMutability": "view",
      "type": "function"
    },
    {
      "inputs": [
        {
          "internalType": "address",
          "name": "to",
          "type": "address"
        },
        {
          "internalType": "uint256",
          "name": "tokenId",
          "type": "uint256"
        }
      ],
      "name": "approve",
      "outputs": [],
      "stateMutability": "nonpayable",
      "type": "function"
    },
    {
      "inputs": [
        {
          "internalType": "address",
          "name": "owner",
          "type": "address"
        }
      ],
      "name": "balanceOf",
      "outputs": [
        {
          "internalType": "uint256",
          "name": "",
          "type": "uint256"
        }
      ],
      "stateMutability": "view",
      "type": "function"
    },
    {
      "inputs": [],
      "name": "baseURI",
      "outputs": [
        {
          "internalType": "string",
          "name": "",
          "type": "string"
        }
      ],
      "stateMutability": "view",
      "type": "function"
    },
    {
      "inputs": [
        {
          "internalType": "uint256",
          "name": "tokenId",
          "type": "uint256"
        }
      ],
      "name": "burn",
      "outputs": [],
      "stateMutability": "nonpayable",
      "type": "function"
    },
    {
      "inputs": [
        {
          "internalType": "contract IERC20",
          "name": "_token",
          "type": "address"
        },
        {
          "internalType": "uint256",
          "name": "_amount",
          "type": "uint256"
        }
      ],
      "name": "forwardERC20s",
      "outputs": [],
      "stateMutability": "nonpayable",
      "type": "function"
    },
    {
      "inputs": [
        {
          "internalType": "uint256",
          "name": "tokenId",
          "type": "uint256"
        }
      ],
      "name": "getApproved",
      "outputs": [
        {
          "internalType": "address",
          "name": "",
          "type": "address"
        }
      ],
      "stateMutability": "view",
      "type": "function"
    },
    {
      "inputs": [
        {
          "internalType": "address",
          "name": "owner",
          "type": "address"
        },
        {
          "internalType": "address",
          "name": "operator",
          "type": "address"
        }
      ],
      "name": "isApprovedForAll",
      "outputs": [
        {
          "internalType": "bool",
          "name": "",
          "type": "bool"
        }
      ],
      "stateMutability": "view",
      "type": "function"
    },
    {
      "inputs": [],
      "name": "name",
      "outputs": [
        {
          "internalType": "string",
          "name": "",
          "type": "string"
        }
      ],
      "stateMutability": "view",
      "type": "function"
    },
    {
      "inputs": [],
      "name": "owner",
      "outputs": [
        {
          "internalType": "address",
          "name": "",
          "type": "address"
        }
      ],
      "stateMutability": "view",
      "type": "function"
    },
    {
      "inputs": [
        {
          "internalType": "uint256",
          "name": "tokenId",
          "type": "uint256"
        }
      ],
      "name": "ownerOf",
      "outputs": [
        {
          "internalType": "address",
          "name": "",
          "type": "address"
        }
      ],
      "stateMutability": "view",
      "type": "function"
    },
    {
      "inputs": [],
      "name": "price",
      "outputs": [
        {
          "internalType": "uint256",
          "name": "",
          "type": "uint256"
        }
      ],
      "stateMutability": "view",
      "type": "function"
    },
    {
      "inputs": [],
      "name": "renounceOwnership",
      "outputs": [],
      "stateMutability": "nonpayable",
      "type": "function"
    },
    {
      "inputs": [
        {
          "internalType": "uint256",
          "name": "_numWizards",
          "type": "uint256"
        }
      ],
      "name": "reserve",
      "outputs": [],
      "stateMutability": "nonpayable",
      "type": "function"
    },
    {
      "inputs": [
        {
          "internalType": "address",
          "name": "from",
          "type": "address"
        },
        {
          "internalType": "address",
          "name": "to",
          "type": "address"
        },
        {
          "internalType": "uint256",
          "name": "tokenId",
          "type": "uint256"
        }
      ],
      "name": "safeTransferFrom",
      "outputs": [],
      "stateMutability": "nonpayable",
      "type": "function"
    },
    {
      "inputs": [
        {
          "internalType": "address",
          "name": "from",
          "type": "address"
        },
        {
          "internalType": "address",
          "name": "to",
          "type": "address"
        },
        {
          "internalType": "uint256",
          "name": "tokenId",
          "type": "uint256"
        },
        {
          "internalType": "bytes",
          "name": "_data",
          "type": "bytes"
        }
      ],
      "name": "safeTransferFrom",
      "outputs": [],
      "stateMutability": "nonpayable",
      "type": "function"
    },
    {
      "inputs": [
        {
          "internalType": "address",
          "name": "operator",
          "type": "address"
        },
        {
          "internalType": "bool",
          "name": "approved",
          "type": "bool"
        }
      ],
      "name": "setApprovalForAll",
      "outputs": [],
      "stateMutability": "nonpayable",
      "type": "function"
    },
    {
      "inputs": [
        {
          "internalType": "string",
          "name": "_newBaseURI",
          "type": "string"
        }
      ],
      "name": "setBaseURI",
      "outputs": [],
      "stateMutability": "nonpayable",
      "type": "function"
    },
    {
      "inputs": [
        {
          "internalType": "uint256",
          "name": "_newPrice",
          "type": "uint256"
        }
      ],
      "name": "setPrice",
      "outputs": [],
      "stateMutability": "nonpayable",
      "type": "function"
    },
    {
      "inputs": [
        {
          "internalType": "string",
          "name": "_hash",
          "type": "string"
        }
      ],
      "name": "setProvenanceHash",
      "outputs": [],
      "stateMutability": "nonpayable",
      "type": "function"
    },
    {
      "inputs": [
        {
          "internalType": "uint256",
          "name": "_newSummonStartBlock",
          "type": "uint256"
        }
      ],
      "name": "setSummonStartBlock",
      "outputs": [],
      "stateMutability": "nonpayable",
      "type": "function"
    },
    {
      "inputs": [
        {
          "internalType": "address",
          "name": "_newVaultAddress",
          "type": "address"
        }
      ],
      "name": "setVault",
      "outputs": [],
      "stateMutability": "nonpayable",
      "type": "function"
    },
    {
      "inputs": [
        {
          "internalType": "uint256",
          "name": "numWizards",
          "type": "uint256"
        }
      ],
      "name": "summon",
      "outputs": [],
      "stateMutability": "payable",
      "type": "function"
    },
    {
      "inputs": [],
      "name": "summonStartBlock",
      "outputs": [
        {
          "internalType": "uint256",
          "name": "",
          "type": "uint256"
        }
      ],
      "stateMutability": "view",
      "type": "function"
    },
    {
      "inputs": [],
      "name": "summonStarted",
      "outputs": [
        {
          "internalType": "bool",
          "name": "",
          "type": "bool"
        }
      ],
      "stateMutability": "view",
      "type": "function"
    },
    {
      "inputs": [
        {
          "internalType": "bytes4",
          "name": "interfaceId",
          "type": "bytes4"
        }
      ],
      "name": "supportsInterface",
      "outputs": [
        {
          "internalType": "bool",
          "name": "",
          "type": "bool"
        }
      ],
      "stateMutability": "view",
      "type": "function"
    },
    {
      "inputs": [],
      "name": "symbol",
      "outputs": [
        {
          "internalType": "string",
          "name": "",
          "type": "string"
        }
      ],
      "stateMutability": "view",
      "type": "function"
    },
    {
      "inputs": [
        {
          "internalType": "uint256",
          "name": "index",
          "type": "uint256"
        }
      ],
      "name": "tokenByIndex",
      "outputs": [
        {
          "internalType": "uint256",
          "name": "",
          "type": "uint256"
        }
      ],
      "stateMutability": "view",
      "type": "function"
    },
    {
      "inputs": [
        {
          "internalType": "address",
          "name": "owner",
          "type": "address"
        },
        {
          "internalType": "uint256",
          "name": "index",
          "type": "uint256"
        }
      ],
      "name": "tokenOfOwnerByIndex",
      "outputs": [
        {
          "internalType": "uint256",
          "name": "",
          "type": "uint256"
        }
      ],
      "stateMutability": "view",
      "type": "function"
    },
    {
      "inputs": [
        {
          "internalType": "uint256",
          "name": "tokenId",
          "type": "uint256"
        }
      ],
      "name": "tokenURI",
      "outputs": [
        {
          "internalType": "string",
          "name": "",
          "type": "string"
        }
      ],
      "stateMutability": "view",
      "type": "function"
    },
    {
      "inputs": [
        {
          "internalType": "address",
          "name": "_owner",
          "type": "address"
        }
      ],
      "name": "tokensOfOwner",
      "outputs": [
        {
          "internalType": "uint256[]",
          "name": "",
          "type": "uint256[]"
        }
      ],
      "stateMutability": "view",
      "type": "function"
    },
    {
      "inputs": [],
      "name": "totalSupply",
      "outputs": [
        {
          "internalType": "uint256",
          "name": "",
          "type": "uint256"
        }
      ],
      "stateMutability": "view",
      "type": "function"
    },
    {
      "inputs": [
        {
          "internalType": "address",
          "name": "from",
          "type": "address"
        },
        {
          "internalType": "address",
          "name": "to",
          "type": "address"
        },
        {
          "internalType": "uint256",
          "name": "tokenId",
          "type": "uint256"
        }
      ],
      "name": "transferFrom",
      "outputs": [],
      "stateMutability": "nonpayable",
      "type": "function"
    },
    {
      "inputs": [
        {
          "internalType": "address",
          "name": "newOwner",
          "type": "address"
        }
      ],
      "name": "transferOwnership",
      "outputs": [],
      "stateMutability": "nonpayable",
      "type": "function"
    },
    {
      "inputs": [
        {
          "internalType": "bytes",
          "name": "s",
          "type": "bytes"
        }
      ],
      "name": "uploadWizardsAttributes",
      "outputs": [],
      "stateMutability": "nonpayable",
      "type": "function"
    },
    {
      "inputs": [
        {
          "internalType": "bytes",
          "name": "s",
          "type": "bytes"
        }
      ],
      "name": "uploadWizardsImage",
      "outputs": [],
      "stateMutability": "nonpayable",
      "type": "function"
    },
    {
      "inputs": [],
      "name": "vault",
      "outputs": [
        {
          "internalType": "address",
          "name": "",
          "type": "address"
        }
      ],
      "stateMutability": "view",
      "type": "function"
    },
    {
      "inputs": [
        {
          "internalType": "uint256",
          "name": "_amount",
          "type": "uint256"
        }
      ],
      "name": "withdraw",
      "outputs": [],
      "stateMutability": "nonpayable",
      "type": "function"
    },
    {
      "inputs": [],
      "name": "withdrawAll",
      "outputs": [],
      "stateMutability": "payable",
      "type": "function"
    }
  ],
  "bytecode": "0x600019600b5560a06040819052600060808190526200002191600c9162000254565b5067016345785d8a0000600e553480156200003b57600080fd5b5060405162003385380380620033858339810160408190526200005e91620002f0565b604080518082018252601981527f466f72676f7474656e52756e657357697a6172647343756c74000000000000006020808301919091528251808401909352600783526657495a4152445360c81b9083015290620000c36301ffc9a760e01b62000194565b8151620000d890600690602085019062000254565b508051620000ee90600790602084019062000254565b50620001016380ac58cd60e01b62000194565b62000113635b5e139f60e01b62000194565b6200012563780e9d6360e01b62000194565b506000905062000134620001ef565b600a80546001600160a01b0319166001600160a01b038316908117909155604051919250906000907f8be0079c531659141344cd1fd0a4f28419497f9722a3daafe3b4186f6b6457e0908290a3506200018d81620001f3565b506200041b565b6001600160e01b03198082161415620001ca5760405162461bcd60e51b8152600401620001c190620003af565b60405180910390fd5b6001600160e01b0319166000908152602081905260409020805460ff19166001179055565b3390565b620001fd620001ef565b600a546001600160a01b039081169116146200022d5760405162461bcd60e51b8152600401620001c190620003e6565b62000238816200023b565b50565b80516200025090600990602084019062000254565b5050565b828054600181600116156101000203166002900490600052602060002090601f016020900481019282601f106200029757805160ff1916838001178555620002c7565b82800160010185558215620002c7579182015b82811115620002c7578251825591602001919060010190620002aa565b50620002d5929150620002d9565b5090565b5b80821115620002d55760008155600101620002da565b6000602080838503121562000303578182fd5b82516001600160401b03808211156200031a578384fd5b818501915085601f8301126200032e578384fd5b8151818111156200033b57fe5b604051601f8201601f19168101850183811182821017156200035957fe5b604052818152838201850188101562000370578586fd5b8592505b8183101562000393578383018501518184018601529184019162000374565b81831115620003a457858583830101525b979650505050505050565b6020808252601c908201527f4552433136353a20696e76616c696420696e7465726661636520696400000000604082015260600190565b6020808252818101527f4f776e61626c653a2063616c6c6572206973206e6f7420746865206f776e6572604082015260600190565b612f5a806200042b6000396000f3fe6080604052600436106102465760003560e01c806370a0823111610139578063a035b1fe116100b6578063cd218e591161007a578063cd218e5914610664578063df75f164146104fb578063e985e9c514610679578063f0c9dc6014610699578063f2fde38b146106ae578063fbfa77cf146106ce57610246565b8063a035b1fe146105da578063a22cb465146105ef578063b88d4fde1461060f578063ba85ac7e1461062f578063c87b56dd1461064457610246565b8063853828b6116100fd578063853828b6146105685780638da5cb5b1461057057806391b7f5ed1461058557806395d89b41146105a55780639727151a146105ba57610246565b806370a08231146104c6578063715018a6146104e65780637abee67f146104fb578063819b25ba1461051b5780638462151c1461053b57610246565b80634201cddf116101c7578063527b3b271161018b578063527b3b271461043c57806355f804b3146104515780636352211e146104715780636817031b146104915780636c0360eb146104b157610246565b80634201cddf146103a757806342842e0e146103c757806342966c68146103e75780634980e1be146104075780634f6ccce71461041c57610246565b8063109695231161020e578063109695231461030557806318160ddd1461032557806323b872dd146103475780632e1a7d4d146103675780632f745c591461038757610246565b806301ffc9a71461024b578063035d9f2a1461028157806306fdde0314610296578063081812fc146102b8578063095ea7b3146102e5575b600080fd5b34801561025757600080fd5b5061026b610266366004612304565b6106e3565b604051610278919061256b565b60405180910390f35b61029461028f3660046123dc565b610706565b005b3480156102a257600080fd5b506102ab610815565b6040516102789190612576565b3480156102c457600080fd5b506102d86102d33660046123dc565b6108ab565b60405161027891906124bd565b3480156102f157600080fd5b506102946103003660046122bd565b6108ee565b34801561031157600080fd5b506102946103203660046123a9565b610986565b34801561033157600080fd5b5061033a6109ce565b6040516102789190612d6e565b34801561035357600080fd5b506102946103623660046121e6565b6109df565b34801561037357600080fd5b506102946103823660046123dc565b610a17565b34801561039357600080fd5b5061033a6103a23660046122bd565b610aa9565b3480156103b357600080fd5b506102946103c23660046123dc565b610ad4565b3480156103d357600080fd5b506102946103e23660046121e6565b610b0e565b3480156103f357600080fd5b506102946104023660046123dc565b610b29565b34801561041357600080fd5b506102ab610b59565b34801561042857600080fd5b5061033a6104373660046123dc565b610b76565b34801561044857600080fd5b5061033a610b8c565b34801561045d57600080fd5b5061029461046c3660046123a9565b610b92565b34801561047d57600080fd5b506102d861048c3660046123dc565b610bd0565b34801561049d57600080fd5b506102946104ac366004612192565b610bf8565b3480156104bd57600080fd5b506102ab610c4f565b3480156104d257600080fd5b5061033a6104e1366004612192565b610cb0565b3480156104f257600080fd5b50610294610cf9565b34801561050757600080fd5b5061029461051636600461233c565b610d30565b34801561052757600080fd5b506102946105363660046123dc565b610d65565b34801561054757600080fd5b5061055b610556366004612192565b610e1d565b6040516102789190612527565b610294610ecb565b34801561057c57600080fd5b506102d8610f59565b34801561059157600080fd5b506102946105a03660046123dc565b610f68565b3480156105b157600080fd5b506102ab610fc7565b3480156105c657600080fd5b506102946105d53660046122bd565b611028565b3480156105e657600080fd5b5061033a6110f8565b3480156105fb57600080fd5b5061029461060a366004612290565b6110fe565b34801561061b57600080fd5b5061029461062a366004612226565b6111cc565b34801561063b57600080fd5b5061026b61120b565b34801561065057600080fd5b506102ab61065f3660046123dc565b611214565b34801561067057600080fd5b5061033a61135e565b34801561068557600080fd5b5061026b6106943660046121ae565b611364565b3480156106a557600080fd5b506102ab611392565b3480156106ba57600080fd5b506102946106c9366004612192565b611420565b3480156106da57600080fd5b506102d86114d7565b6001600160e01b0319811660009081526020819052604090205460ff165b919050565b61070e61120b565b6107335760405162461bcd60e51b815260040161072a90612ce7565b60405180910390fd5b61271061073e6109ce565b1061075b5760405162461bcd60e51b815260040161072a906126bf565b60008111801561076c5750600c8111155b6107885760405162461bcd60e51b815260040161072a906125c0565b61271061079d826107976109ce565b906114e6565b11156107bb5760405162461bcd60e51b815260040161072a906128ef565b600e546107c8908261150b565b3410156107e75760405162461bcd60e51b815260040161072a90612ac3565b60005b818110156108115760006107fc6109ce565b90506108083382611545565b506001016107ea565b5050565b60068054604080516020601f60026000196101006001881615020190951694909404938401819004810282018101909252828152606093909290918301828280156108a15780601f10610876576101008083540402835291602001916108a1565b820191906000526020600020905b81548152906001019060200180831161088457829003601f168201915b5050505050905090565b60006108b68261155f565b6108d25760405162461bcd60e51b815260040161072a90612b05565b506000908152600460205260409020546001600160a01b031690565b60006108f982610bd0565b9050806001600160a01b0316836001600160a01b0316141561092d5760405162461bcd60e51b815260040161072a90612c1e565b806001600160a01b031661093f61156c565b6001600160a01b0316148061095b575061095b8161069461156c565b6109775760405162461bcd60e51b815260040161072a90612942565b6109818383611570565b505050565b61098e61156c565b600a546001600160a01b039081169116146109bb5760405162461bcd60e51b815260040161072a90612b51565b805161081190600c906020840190612045565b60006109da60026115de565b905090565b6109f06109ea61156c565b826115e9565b610a0c5760405162461bcd60e51b815260040161072a90612c5f565b61098183838361166e565b610a1f61156c565b600a546001600160a01b03908116911614610a4c5760405162461bcd60e51b815260040161072a90612b51565b600d546001600160a01b0316610a745760405162461bcd60e51b815260040161072a90612a60565b600d546040516001600160a01b039091169082156108fc029083906000818181858888f19350505050610aa657600080fd5b50565b6001600160a01b0382166000908152600160205260408120610acb908361177c565b90505b92915050565b610adc61156c565b600a546001600160a01b03908116911614610b095760405162461bcd60e51b815260040161072a90612b51565b600b55565b610981838383604051806020016040528060008152506111cc565b610b346109ea61156c565b610b505760405162461bcd60e51b815260040161072a90612d1e565b610aa681611788565b60405180610120016040528060ed8152602001612e0f60ed913981565b600080610b84600284611855565b509392505050565b61271081565b610b9a61156c565b600a546001600160a01b03908116911614610bc75760405162461bcd60e51b815260040161072a90612b51565b610aa681611871565b6000610ace82604051806060016040528060298152602001612efc6029913960029190611884565b610c0061156c565b600a546001600160a01b03908116911614610c2d5760405162461bcd60e51b815260040161072a90612b51565b600d80546001600160a01b0319166001600160a01b0392909216919091179055565b60098054604080516020601f60026000196101006001881615020190951694909404938401819004810282018101909252828152606093909290918301828280156108a15780601f10610876576101008083540402835291602001916108a1565b60006001600160a01b038216610cd85760405162461bcd60e51b815260040161072a9061299f565b6001600160a01b0382166000908152600160205260409020610ace906115de565b610d0161156c565b600a546001600160a01b03908116911614610d2e5760405162461bcd60e51b815260040161072a90612b51565b565b610d3861156c565b600a546001600160a01b039081169116146108115760405162461bcd60e51b815260040161072a90612b51565b610d6d61156c565b600a546001600160a01b03908116911614610d9a5760405162461bcd60e51b815260040161072a90612b51565b6000610da46109ce565b90506050610db4836107976109ce565b1115610dd25760405162461bcd60e51b815260040161072a90612589565b610dda61120b565b15610df75760405162461bcd60e51b815260040161072a906128c5565b60005b8281101561098157610e15610e0d610f59565b828401611545565b600101610dfa565b60606000610e2a83610cb0565b905080610e47575050604080516000815260208101909152610701565b60608167ffffffffffffffff81118015610e6057600080fd5b50604051908082528060200260200182016040528015610e8a578160200160208202803683370190505b50905060005b82811015610ec157610ea28582610aa9565b828281518110610eae57fe5b6020908102919091010152600101610e90565b5091506107019050565b610ed361156c565b600a546001600160a01b03908116911614610f005760405162461bcd60e51b815260040161072a90612b51565b600d546001600160a01b0316610f285760405162461bcd60e51b815260040161072a90612a60565b600d546040516001600160a01b03909116904780156108fc02916000818181858888f19350505050610d2e57600080fd5b600a546001600160a01b031690565b610f7061156c565b600a546001600160a01b03908116911614610f9d5760405162461bcd60e51b815260040161072a90612b51565b610fa561120b565b15610fc25760405162461bcd60e51b815260040161072a90612825565b600e55565b60078054604080516020601f60026000196101006001881615020190951694909404938401819004810282018101909252828152606093909290918301828280156108a15780601f10610876576101008083540402835291602001916108a1565b61103061156c565b600a546001600160a01b0390811691161461105d5760405162461bcd60e51b815260040161072a90612b51565b600d546001600160a01b031661107257600080fd5b600d5460405163a9059cbb60e01b81526001600160a01b038481169263a9059cbb926110a69290911690859060040161250e565b602060405180830381600087803b1580156110c057600080fd5b505af11580156110d4573d6000803e3d6000fd5b505050506040513d601f19601f8201168201806040525081019061098191906122e8565b600e5481565b61110661156c565b6001600160a01b0316826001600160a01b031614156111375760405162461bcd60e51b815260040161072a906127ee565b806005600061114461156c565b6001600160a01b03908116825260208083019390935260409182016000908120918716808252919093529120805460ff19169215159290921790915561118861156c565b6001600160a01b03167f17307eab39ab6107e8899845ad3d59bd9653f200f220920489ca2b5937696c31836040516111c0919061256b565b60405180910390a35050565b6111dd6111d761156c565b836115e9565b6111f95760405162461bcd60e51b815260040161072a90612c5f565b6112058484848461189b565b50505050565b600b5443101590565b606061121f8261155f565b61123b5760405162461bcd60e51b815260040161072a90612bcf565b60008281526008602090815260409182902080548351601f60026000196101006001861615020190931692909204918201849004840281018401909452808452606093928301828280156112d05780601f106112a5576101008083540402835291602001916112d0565b820191906000526020600020905b8154815290600101906020018083116112b357829003601f168201915b5050600954939450505050600260001961010060018416150201909116046112f9579050610701565b80511561132b5760098160405160200161131492919061243c565b604051602081830303815290604052915050610701565b6009611336846118ce565b60405160200161134792919061243c565b604051602081830303815290604052915050919050565b600b5481565b6001600160a01b03918216600090815260056020908152604080832093909416825291909152205460ff1690565b600c805460408051602060026001851615610100026000190190941693909304601f810184900484028201840190925281815292918301828280156114185780601f106113ed57610100808354040283529160200191611418565b820191906000526020600020905b8154815290600101906020018083116113fb57829003601f168201915b505050505081565b61142861156c565b600a546001600160a01b039081169116146114555760405162461bcd60e51b815260040161072a90612b51565b6001600160a01b03811661147b5760405162461bcd60e51b815260040161072a906126f6565b600a546040516001600160a01b038084169216907f8be0079c531659141344cd1fd0a4f28419497f9722a3daafe3b4186f6b6457e090600090a3600a80546001600160a01b0319166001600160a01b0392909216919091179055565b600d546001600160a01b031681565b600082820183811015610acb5760405162461bcd60e51b815260040161072a90612773565b60008261151a57506000610ace565b8282028284828161152757fe5b0414610acb5760405162461bcd60e51b815260040161072a90612a82565b6108118282604051806020016040528060008152506119a9565b6000610ace6002836119dc565b3390565b600081815260046020526040902080546001600160a01b0319166001600160a01b03841690811790915581906115a582610bd0565b6001600160a01b03167f8c5be1e5ebec7d5bd14f71427d1e84f3dd0314c0f7b2291e5b200ac8c7c3b92560405160405180910390a45050565b6000610ace826119e8565b60006115f48261155f565b6116105760405162461bcd60e51b815260040161072a90612879565b600061161b83610bd0565b9050806001600160a01b0316846001600160a01b031614806116565750836001600160a01b031661164b846108ab565b6001600160a01b0316145b8061166657506116668185611364565b949350505050565b826001600160a01b031661168182610bd0565b6001600160a01b0316146116a75760405162461bcd60e51b815260040161072a90612b86565b6001600160a01b0382166116cd5760405162461bcd60e51b815260040161072a906127aa565b6116d8838383610981565b6116e3600082611570565b6001600160a01b038316600090815260016020526040902061170590826119ec565b506001600160a01b038216600090815260016020526040902061172890826119f8565b5061173560028284611a04565b5080826001600160a01b0316846001600160a01b03167fddf252ad1be2c89b69c2b068fc378daa952ba7f163c4a11628f55a4df523b3ef60405160405180910390a4505050565b6000610acb8383611a1a565b600061179382610bd0565b90506117a181600084610981565b6117ac600083611570565b60008281526008602052604090205460026000196101006001841615020190911604156117ea5760008281526008602052604081206117ea916120c3565b6001600160a01b038116600090815260016020526040902061180c90836119ec565b50611818600283611a5f565b5060405182906000906001600160a01b038416907fddf252ad1be2c89b69c2b068fc378daa952ba7f163c4a11628f55a4df523b3ef908390a45050565b60008080806118648686611a6b565b9097909650945050505050565b8051610811906009906020840190612045565b6000611891848484611ac7565b90505b9392505050565b6118a684848461166e565b6118b284848484611b26565b6112055760405162461bcd60e51b815260040161072a9061266d565b6060816118f357506040805180820190915260018152600360fc1b6020820152610701565b8160005b811561190b57600101600a820491506118f7565b60608167ffffffffffffffff8111801561192457600080fd5b506040519080825280601f01601f19166020018201604052801561194f576020820181803683370190505b50859350905060001982015b83156119a057600a840660300160f81b8282806001900393508151811061197e57fe5b60200101906001600160f81b031916908160001a905350600a8404935061195b565b50949350505050565b6119b38383611c05565b6119c06000848484611b26565b6109815760405162461bcd60e51b815260040161072a9061266d565b6000610acb8383611cc9565b5490565b6000610acb8383611ce1565b6000610acb8383611da7565b600061189184846001600160a01b038516611df1565b81546000908210611a3d5760405162461bcd60e51b815260040161072a9061262b565b826000018281548110611a4c57fe5b9060005260206000200154905092915050565b6000610acb8383611e88565b815460009081908310611a905760405162461bcd60e51b815260040161072a906129e9565b6000846000018481548110611aa157fe5b906000526020600020906002020190508060000154816001015492509250509250929050565b60008281526001840160205260408120548281611af75760405162461bcd60e51b815260040161072a9190612576565b50846000016001820381548110611b0a57fe5b9060005260206000209060020201600101549150509392505050565b6000611b3a846001600160a01b0316611f5c565b611b4657506001611666565b6060611bce630a85bd0160e11b611b5b61156c565b888787604051602401611b7194939291906124d1565b604051602081830303815290604052906001600160e01b0319166020820180516001600160e01b038381831617835250505050604051806060016040528060328152602001612ddd603291396001600160a01b0388169190611f62565b9050600081806020019051810190611be69190612320565b6001600160e01b031916630a85bd0160e11b1492505050949350505050565b6001600160a01b038216611c2b5760405162461bcd60e51b815260040161072a90612a2b565b611c348161155f565b15611c515760405162461bcd60e51b815260040161072a9061273c565b611c5d60008383610981565b6001600160a01b0382166000908152600160205260409020611c7f90826119f8565b50611c8c60028284611a04565b5060405181906001600160a01b038416906000907fddf252ad1be2c89b69c2b068fc378daa952ba7f163c4a11628f55a4df523b3ef908290a45050565b60009081526001919091016020526040902054151590565b60008181526001830160205260408120548015611d9d5783546000198083019190810190600090879083908110611d1457fe5b9060005260206000200154905080876000018481548110611d3157fe5b600091825260208083209091019290925582815260018981019092526040902090840190558654879080611d6157fe5b60019003818190600052602060002001600090559055866001016000878152602001908152602001600020600090556001945050505050610ace565b6000915050610ace565b6000611db38383611cc9565b611de957508154600181810184556000848152602080822090930184905584548482528286019093526040902091909155610ace565b506000610ace565b600082815260018401602052604081205480611e56575050604080518082018252838152602080820184815286546001818101895560008981528481209551600290930290950191825591519082015586548684528188019092529290912055611894565b82856000016001830381548110611e6957fe5b9060005260206000209060020201600101819055506000915050611894565b60008181526001830160205260408120548015611d9d5783546000198083019190810190600090879083908110611ebb57fe5b9060005260206000209060020201905080876000018481548110611edb57fe5b600091825260208083208454600290930201918255600193840154918401919091558354825289830190526040902090840190558654879080611f1a57fe5b6000828152602080822060026000199094019384020182815560019081018390559290935588815289820190925260408220919091559450610ace9350505050565b3b151590565b6060611891848460008585611f7685611f5c565b611f925760405162461bcd60e51b815260040161072a90612cb0565b60006060866001600160a01b03168587604051611faf9190612420565b60006040518083038185875af1925050503d8060008114611fec576040519150601f19603f3d011682016040523d82523d6000602084013e611ff1565b606091505b509150915061200182828661200c565b979650505050505050565b6060831561201b575081611894565b82511561202b5782518084602001fd5b8160405162461bcd60e51b815260040161072a9190612576565b828054600181600116156101000203166002900490600052602060002090601f016020900481019282601f1061208657805160ff19168380011785556120b3565b828001600101855582156120b3579182015b828111156120b3578251825591602001919060010190612098565b506120bf929150612103565b5090565b50805460018160011615610100020316600290046000825580601f106120e95750610aa6565b601f016020900490600052602060002090810190610aa691905b5b808211156120bf5760008155600101612104565b600082601f830112612128578081fd5b813567ffffffffffffffff8082111561213d57fe5b604051601f8301601f19168101602001828111828210171561215b57fe5b60405282815292508284830160200186101561217657600080fd5b8260208601602083013760006020848301015250505092915050565b6000602082840312156121a3578081fd5b8135610acb81612da3565b600080604083850312156121c0578081fd5b82356121cb81612da3565b915060208301356121db81612da3565b809150509250929050565b6000806000606084860312156121fa578081fd5b833561220581612da3565b9250602084013561221581612da3565b929592945050506040919091013590565b6000806000806080858703121561223b578081fd5b843561224681612da3565b9350602085013561225681612da3565b925060408501359150606085013567ffffffffffffffff811115612278578182fd5b61228487828801612118565b91505092959194509250565b600080604083850312156122a2578182fd5b82356122ad81612da3565b915060208301356121db81612db8565b600080604083850312156122cf578182fd5b82356122da81612da3565b946020939093013593505050565b6000602082840312156122f9578081fd5b8151610acb81612db8565b600060208284031215612315578081fd5b8135610acb81612dc6565b600060208284031215612331578081fd5b8151610acb81612dc6565b6000806020838503121561234e578182fd5b823567ffffffffffffffff80821115612365578384fd5b818501915085601f830112612378578384fd5b813581811115612386578485fd5b866020828501011115612397578485fd5b60209290920196919550909350505050565b6000602082840312156123ba578081fd5b813567ffffffffffffffff8111156123d0578182fd5b61166684828501612118565b6000602082840312156123ed578081fd5b5035919050565b6000815180845261240c816020860160208601612d77565b601f01601f19169290920160200192915050565b60008251612432818460208701612d77565b9190910192915050565b600080845460018082166000811461245b5760018114612472576124a1565b60ff198316865260028304607f16860193506124a1565b600283048886526020808720875b838110156124995781548a820152908501908201612480565b505050860193505b50505083516124b4818360208801612d77565b01949350505050565b6001600160a01b0391909116815260200190565b6001600160a01b0385811682528416602082015260408101839052608060608201819052600090612504908301846123f4565b9695505050505050565b6001600160a01b03929092168252602082015260400190565b6020808252825182820181905260009190848201906040850190845b8181101561255f57835183529284019291840191600101612543565b50909695505050505050565b901515815260200190565b600060208252610acb60208301846123f4565b60208082526018908201527f457863656564656420726573657276656420737570706c790000000000000000604082015260600190565b60208082526045908201527f596f752063616e2073756d6d6f6e206e6f206665776572207468616e20312c2060408201527f616e64206e6f206d6f7265207468616e2031322077697a6172647320617420616060820152642074696d6560d81b608082015260a00190565b60208082526022908201527f456e756d657261626c655365743a20696e646578206f7574206f6620626f756e604082015261647360f01b606082015260800190565b60208082526032908201527f4552433732313a207472616e7366657220746f206e6f6e20455243373231526560408201527131b2b4bb32b91034b6b83632b6b2b73a32b960711b606082015260800190565b6020808252601e908201527f416c6c2077697a617264732068617665206265656e2073756d6d6f6e65640000604082015260600190565b60208082526026908201527f4f776e61626c653a206e6577206f776e657220697320746865207a65726f206160408201526564647265737360d01b606082015260800190565b6020808252601c908201527f4552433732313a20746f6b656e20616c7265616479206d696e74656400000000604082015260600190565b6020808252601b908201527f536166654d6174683a206164646974696f6e206f766572666c6f770000000000604082015260600190565b60208082526024908201527f4552433732313a207472616e7366657220746f20746865207a65726f206164646040820152637265737360e01b606082015260800190565b60208082526019908201527f4552433732313a20617070726f766520746f2063616c6c657200000000000000604082015260600190565b60208082526034908201527f50726963652063616e6e6f74206265206368616e676564206f6e6365205468656040820152731029bab6b6b7b734b733903430b9903132b3bab760611b606082015260800190565b6020808252602c908201527f4552433732313a206f70657261746f7220717565727920666f72206e6f6e657860408201526b34b9ba32b73a103a37b5b2b760a11b606082015260800190565b60208082526010908201526f596f752061637420746f6f206c61746560801b604082015260600190565b60208082526033908201527f49276d2061667261696420796f75277665206661696c656420746f2073756d6d6040820152726f6e20746f6f206d616e792077697a6172647360681b606082015260800190565b60208082526038908201527f4552433732313a20617070726f76652063616c6c6572206973206e6f74206f7760408201527f6e6572206e6f7220617070726f76656420666f7220616c6c0000000000000000606082015260800190565b6020808252602a908201527f4552433732313a2062616c616e636520717565727920666f7220746865207a65604082015269726f206164647265737360b01b606082015260800190565b60208082526022908201527f456e756d657261626c654d61703a20696e646578206f7574206f6620626f756e604082015261647360f01b606082015260800190565b6020808252818101527f4552433732313a206d696e7420746f20746865207a65726f2061646472657373604082015260600190565b6020808252600890820152671b9bc81d985d5b1d60c21b604082015260600190565b60208082526021908201527f536166654d6174683a206d756c7469706c69636174696f6e206f766572666c6f6040820152607760f81b606082015260800190565b60208082526022908201527f45746865722076616c75652073656e74206973206e6f742073756666696369656040820152611b9d60f21b606082015260800190565b6020808252602c908201527f4552433732313a20617070726f76656420717565727920666f72206e6f6e657860408201526b34b9ba32b73a103a37b5b2b760a11b606082015260800190565b6020808252818101527f4f776e61626c653a2063616c6c6572206973206e6f7420746865206f776e6572604082015260600190565b60208082526029908201527f4552433732313a207472616e73666572206f6620746f6b656e2074686174206960408201526839903737ba1037bbb760b91b606082015260800190565b6020808252602f908201527f4552433732314d657461646174613a2055524920717565727920666f72206e6f60408201526e3732bc34b9ba32b73a103a37b5b2b760891b606082015260800190565b60208082526021908201527f4552433732313a20617070726f76616c20746f2063757272656e74206f776e656040820152603960f91b606082015260800190565b60208082526031908201527f4552433732313a207472616e736665722063616c6c6572206973206e6f74206f6040820152701ddb995c881b9bdc88185c1c1c9bdd9959607a1b606082015260800190565b6020808252601d908201527f416464726573733a2063616c6c20746f206e6f6e2d636f6e7472616374000000604082015260600190565b60208082526018908201527f596f7520616374206265666f726520796f75722074696d650000000000000000604082015260600190565b60208082526030908201527f4552433732314275726e61626c653a2063616c6c6572206973206e6f74206f7760408201526f1b995c881b9bdc88185c1c1c9bdd995960821b606082015260800190565b90815260200190565b60005b83811015612d92578181015183820152602001612d7a565b838111156112055750506000910152565b6001600160a01b0381168114610aa657600080fd5b8015158114610aa657600080fd5b6001600160e01b031981168114610aa657600080fdfe4552433732313a207472616e7366657220746f206e6f6e20455243373231526563656976657220696d706c656d656e7465724974206973206e6f74206f7572207061727420746f206d617374657220616c6c20746865207469646573206f662074686520776f726c642c2062757420746f20646f207768617420697320696e20757320666f722074686520737563636f7572206f662074686f7365207965617273207768657265696e20776520617265207365742c207570726f6f74696e6720746865206576696c20696e20746865206669656c64732074686174207765206b6e6f772c20736f20746861742074686f73652077686f206c697665206166746572206d6179206861766520636c65616e20656172746820746f2074696c6c2e4552433732313a206f776e657220717565727920666f72206e6f6e6578697374656e7420746f6b656ea2646970667358221220614206144aee34a693bc8cf17e2d3a23ebb9cddc45dddf7eb77856e855002f7164736f6c63430007030033",
  "linkReferences": {},
  "deployedLinkReferences": {}
}